:020000040800F2
:1000000098B70020450100089F6D00080F02000806
:100010009D6D0008D70500089970000800000000D9
:10002000000000000000000000000000A16D0008BA
:10003000D90500080000000097010008A56D000820
:100040005F0100085F0100085F0100085F01000810
:100050005F0100085F0100085F0100085F01000800
:100060005F0100085F0100085F0100085F010008F0
:100070005F0100085F0100085F0100085F010008E0
:100080005F0100085F0100085F0100085F010008D0
:100090005F0100085F0100085F0100085F010008C0
:1000A0005F0100085F0100085F0100085F010008B0
:1000B0005F0100085F0100085F0100085F010008A0
:1000C0005F0100085F0100085F0100085F01000890
:1000D0005F0100085F0100085F0100085F01000880
:1000E0005F0100085F0100085F0100085F01000870
:1000F0005F0100085F0100085F0100085F01000860
:100100005F0100085F0100085F0100085F0100084F
:100110005F0100085F0100085F0100085F0100083F
:100120005F0100085F0100085F0100085F0100082F
:10013000DFF80CD000F0FAF900480047C5050008C8
:1001400098B700200648804706480047FEE7FEE7CC
:10015000FEE7FEE7FEE7FEE7FEE7FEE7FEE7FEE777
:10016000816E000831010008EFF3108072B670470D
:1001700080F310887047334A1368012B04D04FF086
:1001800001031360304A1060304A116030484FF06C
:10019000805101607047EFF3108272B62948016800
:1001A00091B14FF0000101602748016829B1EFF3D8
:1001B000098121E9F00F0068016024490968096894
:1001C000B1E8F00F81F3098882F310884EF0040E35
:1001D00070471E4908601C494FF00000086019492B
:1001E0004FF0010008601B484FF47F01D0F8002059
:1001F00041EA0201016016484FF080510160164843
:100200000068006880F3088861B662B670471EF027
:10021000040F0CBFEFF30880EFF3098020E9F00F23
:1002200040F804ED1EF0040F0CBF80F3088880F343
:10023000098800B50BF056FF5DF804EB4EF0040E94
:1002400070470000540000204C00002050000020A7
:1002500004ED00E020ED00E008ED00E0202A04DBE2
:10026000203A21FA02F00021704721FA02F3D0402F
:10027000C2F12002914008431946704710B5431A55
:10028000934209D28318881803E010F8011D03F87F
:10029000011D521EF9D210BD40EA01039B0703D095
:1002A00009E008C9121F08C0042AFAD203E011F8B5
:1002B000013B00F8013B521EF9D210BDD2B201E061
:1002C00000F8012B491EFBD270470022F6E710B55B
:1002D00013460A4604461946FFF7F0FF204610BDB4
:1002E0002DE9FE4F81EA030404F0004421F00041AF
:1002F00000944FF0000B23F0004350EA01045ED05D
:1003000052EA03045BD0C3F30A54C1F30A552C44E8
:10031000A4F2F3340194A0FB0254C1F3130141F49D
:100320008011C3F3130343F4801301FB024400FB69
:10033000034E840A970A44EA815447EA8357A4FB90
:10034000076802958D0A05FB07854FEA932C04FB8D
:100350000C542705029D4FEA065847EA1637B5EBBD
:1003600008056EEB070C870E920E47EA811742EAEA
:100370008312A7FB0201B6EB0B0164EB00042B0D0B
:1003800043EA0C335E1844EB1C50DA465146E7FB57
:100390000201C5F313044FEA0B3343EA14534FEA47
:1003A0000432019C43EA0603A4F10C040294009C6D
:1003B000CDE900B400F06CF803B0BDE8F08F002088
:1003C0000146F9E70EB540F2334102910021CDE933
:1003D00000110A460B4600F05BF803B000BDC1F304
:1003E0000A5210B5C1F3130140F2FF3341F48011FA
:1003F0009A4201DA002010BD40F233439A42A2F241
:10040000334203DC5242FFF729FF10BD904010BD7C
:100410002DE9F05F0546002092469B468846064639
:10042000814640241BE02846414647462246FFF7C6
:1004300015FF53465A46C01A914110D3114618462B
:10044000224600F085F82D1A67EB01084F46224638
:100450000120002100F07CF817EB00094E41201E1E
:10046000A4F10104DFDC484631462A464346BDE894
:10047000F09F10B5141E73F1000408DA401C41F11E
:10048000000192185B411A4301D120F0010010BD18
:100490002DE9F04D92469B4611B1B1FA81F202E08E
:1004A000B0FA80F22032904600F052F804460F462F
:1004B00040EA0A0041EA0B0153465A46084313D06A
:1004C000114653EA010019D0C8F140025046FFF727
:1004D000C5FE05460E4650465946424600F038F8DD
:1004E000084305D0012004E020463946BDE8F08DE0
:1004F0000020054346EAE0762C4337430A9863051B
:10050000E40AA0EB08000022FD0A44EA47540A303E
:1005100002D500200146E9E7010510196941DDE92E
:10052000084500196941BDE8F04DA2E7064C074DAA
:1005300006E0E06840F0010394E8070098471034B3
:10054000AC42F6D3FFF7F8FD6C0201088C020108FB
:10055000202A04DB203A00FA02F100207047914083
:10056000C2F1200320FA03F319439040704770B59D
:100570008C1810F8015B15F0070301D110F8013B4E
:100580002A1106D110F8012B03E010F8016B01F8D5
:10059000016B5B1EF9D12B0705D40023521E0DD42D
:1005A00001F8013BFAE710F8013BCB1A921C03E07B
:1005B00013F8015B01F8015B521EF9D5A142D8D3B3
:1005C000002070BD10B50CF02DFC002010BD0028DF
:1005D00000DC40427047FEE77047704730B5B3F526
:1005E000804F05D06FF0704140F82210002030BDE0
:1005F0008C690B688D6823434C688989240144EA1F
:100600000524234343EA014150F82230014C2340A2
:100610001943E9E70000F0CF10B50A6850F822301E
:1006200023F0010340F822308C68082C23D00023EB
:100630004A682243CC681C430B6922431A434B6926
:100640000E4C1A43CB691A430B6A1A434B6A1A437E
:100650008B6A1A43CB6A1A430B6B1A438B69134399
:100660004A6B09681A4350F82130A343134340F8FA
:100670002130002010BD4023DAE700007FFF0F008B
:1006800030B5D1E9003443EA04138C688D89240223
:1006900044EA054423430C8A094D00EB820005EB34
:1006A000045423430C7D6D0105EB046489692343E5
:1006B0000B43416801F040410B434360002030BDD3
:1006C0000000F0FF1CB50024019401AC009400F080
:1006D000E7F81CBD2DE9FF4F83B0814606988A4696
:1006E000A0EB0A08109E00200090A2EB09043568D8
:1006F000934654EA080018D02046FFF768FF0746E3
:100700004046FFF764FF87420BDA204644468046A6
:100710004846D14682465846DDF818B0069001207A
:100720000090002C07DD204606E007B04846BDE8F3
:10073000F04F00F03BB96042A0420AD04846D9468B
:100740006442C8F1000883464FF0FF37DDF818A077
:1007500000E001275148B8F1000F11D004EBD4712B
:100760004FEA610B01DACBF1000B4C480068807E48
:1007700088B3002F02DA30682044306000257BE027
:1007800000990029016821D0897E11B10027804697
:1007900015E007B05A4649465046BDE8F04F03F011
:1007A0001FBD28466D1C0AF0A1F838B9D8F8000022
:1007B00009EB0701406E4268504690477F1CA742F4
:1007C000EFDD6D1E356007B0BDE8F08F8A7E1AB18F
:1007D0000027804617E019E0486E5A4651460368E4
:1007E00007B04846BDE8F04F184728466D1C0AF090
:1007F0007DF838B9D8F8001009EB0700496E4A684F
:10080000514690477F1CA742EFDDDAE700250FE055
:1008100008FB05B090FBF4F101EB0A00009951B11F
:100820001E4A09EB05011268526E526890476D1C12
:10083000A542EDDDC7E7194909EB05030968496ED3
:100840004A6801461846F1E708FB05B090FBF4F151
:1008500001EB0A0001903068384430600AF046F835
:1008600048B9009890B10D4809EB05010068406E49
:100870004268019890476D1CA542E5DD3068002F65
:1008800001DA20443060C01B30609CE7034909EB6B
:1008900005000968496E4A680199EBE7D400002019
:1008A0002DE9FF470F4640491646804609680C98D7
:1008B0001D460A7E012A1CD0A8EB0600791B50EACF
:1008C00001031CD0A2F101090AF006FE00F58060C8
:1008D000824602F0CFFA00FB09F4504602F0CEFA4D
:1008E00000FB09F1002C0CDAC4F5007080124042C4
:1008F0000AE00090324639464046FFF7EBFEBDE87D
:10090000FF8704F50074A012002904DAC1F5007114
:1009100089124C4202E001F500718C12002804DDBE
:10092000411C01EBD171491003E000EBD07149107B
:10093000401E00EBD0704210002C04DD601C00EB68
:10094000D070401003E004EBD4704010641E04EB40
:10095000D47308EB0104ADF800403C18ADF8024038
:10096000A8EB02045B10B21AADF80440ADF8082001
:100970003144FC1AEA1AADF80C102844ADF80A20EC
:10098000ADF80E000023ADF806401A460421684673
:1009900000F07AF83946404608F0F8FE294630461D
:1009A00008F0F4FEABE70000D4000020064A13680C
:1009B0001A7E012A05D0521E02EBD272521000F0AC
:1009C00005B85A6E52681047D40000202DE9F05F38
:1009D0000646884640F2C32002FB00F14FF47A70CD
:1009E00091FBF0F702FB02F102EBD27001EB600B1E
:1009F0001446B118234A301B7F1C1268526E1368CC
:100A00000A4641469847012538E000BF05FB05F03E
:100A100004FB040159451CDDBC4219DD194B06EBF2
:100A2000050AA6EB05091B68AAF1010208EB0401FF
:100A30005B6E09F101001B689847124BAAF1010295
:100A4000A8EB04011B6809F101005B6E1B68984765
:100A5000641E0C4B3219301B1B68924608EB0501D3
:100A60005B6E81461B689847064B5246A8EB050112
:100A70001B6848465B6E1B6898476D1CBD42C5DD10
:100A8000BDE8F09FD40000202DE9FF4F43F6FF742E
:100A90000F46664283B09B46814600210BE000BFB3
:100AA00009EB8100B0F90200A04200DA0446B0422E
:100AB00000DD0646491CB942F2DB67480068406920
:100AC00000280DD0B0F906101A46A1EB0B01B14277
:100AD00000DA0E46B0F90200801AA04200DD04469A
:100AE000B4E0DFF878A100200546CAF8000088E0ED
:100AF000781E854201DA6B1C00E0002309EB850CAF
:100B000009EB8302BCF90200B2F90210A04244D101
:100B1000A14215D139F92330059A39F9251003EB93
:100B2000020C4D4A05981268084404EB0B01526E02
:100B30006045136801DA62462AE00246604627E013
:100B40002846A4464FF000087A1E0BE008B1401E6C
:100B500000E0781E09EB8003B3F90230634504D14D
:100B600008F101089045F1DB2346A34248D01A1B47
:100B700039F92500A1EB040C059B92EA0C0F09D46E
:100B8000354A184404EB0B011268526E1368024692
:100B9000984735E007F0ACFA32E0A14230D001DBF3
:100BA000A04203DDA0422BDBA14229DCE0468842C3
:100BB0000ADC0346A04223DC0846A14220DBB8F948
:100BC00000C0B2F9001008E00B46A14218DCA042B8
:100BD00016DBB2F900C0B8F90010E21AA1EB0C0163
:100BE00051430029A0EB030202DD01EB620102E0A8
:100BF000A1EB6201491CC01A91FBF0F06044C9E707
:100C00006D1CBD42FFF674AF0598009004EB0B001D
:100C1000019000208046054613E01149B8F1000F0D
:100C200031F915A009D0009901EB0A0208440A49DC
:100C30000968496E0B680199984788F00108504689
:100C40006D1C064909688D42E7DB641CB4427FF7DE
:100C500048AF07B0BDE8F08FD40000205401002059
:100C6000C8B2002010B5002001F058F96FF07F40A5
:100C700001F056F9012001F08BF9002001F090F904
:100C8000002001F097F9002001F052F904480068B3
:100C900001F050F9BDE81040002001F055B9000006
:100CA000D00000202DE9F04FDFF828B191B04FF0CF
:100CB000FF35DBF80030B3F922100691DE69B3F995
:100CC00024A0F469A189814206D8E289824203D333
:100CD000471AD4F8008012E0D4E90181002970D0CD
:100CE0000A8882426DD84D8885426AD3801A82B2C2
:100CF000486800EB8200B0F90070B0F90250781C2F
:100D00005FD0307EA27C014600FB02F9207CCDE959
:100D10000710B3F92A60304605F024FDC0B20E90EA
:100D2000DBF8001007FB0980A37C8A6B0127CDE963
:100D30000402CDE90273C869089AC17E807ECDE9BC
:100D40000001DDE90603514603F0E8F8681C18D0FD
:100D500046F0020005F006FDDBF80000A37C05FB71
:100D60000981826BCDE90273CDE90412C069089A4A
:100D7000C17E807ECDE90001DDE90603514603F026
:100D8000CDF8DBF800005D46C069417E007E8142FF
:100D900014D9022E12D086F0040005F0E3FC286876
:100DA000C069027EC37E857E02FB03A1437E089A52
:100DB0000698534402FB050203F0C2FA0E9805F0B0
:100DC000D1FCDBF80000627C418C1144418411B0FD
:100DD000BDE8F08FD400002004480068C069C069F5
:100DE00009B1027C0A60407C70470000D4000020FA
:100DF000022008807047C06982898A4202D8C2896D
:100E00008A4210D2806880B102888A420DD8438815
:100E10008B420AD3406800EB8100A0EB8200B0F95E
:100E20000000002801DB012070470020704700000F
:100E30002DE9F0432F4C034687B020681946B0F9DE
:100E40002A80C069C06900F082F800284ED041684D
:100E50000088181A01EBC0054046AE7805F082FC08
:100E6000814620686A680123816BCDE90236CDE9AD
:100E70000421C169CB7E8A7ECDE900230B7EB0F9C7
:100E800024102A78B0F9220003F048F82068C069DD
:100E9000477E067EB7421DD9C07E47434643B8F120
:100EA000020F17D000F044FB804600F029FB01F050
:100EB00037F821682A78CB69B1F92200B1F92410FA
:100EC000DB7E02FB0302CB19314403F039FA4046C2
:100ED00001F026F8484605F045FC20686A78C369A9
:100EE000B0F922109B7E02FB0311418407B0BDE8DC
:100EF000F0830000D400002030B50E4C05460B46B0
:100F000020682946C069C06900F021F8002810D087
:100F10004168008824682A1A0120E46900EBC200B5
:100F2000085CA47E6043002B03D011F832106143AB
:100F3000196030BDD400002001200880704700B542
:100F4000C06900F004F8002800D0012000BD06E0D0
:100F500002888A4202D842888A4202D280680028E7
:100F6000F6D17047002801D007F01AB9704738B59C
:100F70000546FFF7F7FF040009D000F0B3F82A4652
:100F80000021009001F032FF684600F0DBF82046B7
:100F900038BD0000024A106021F003005060704725
:100FA0003CB2002010B5002814D004460A48006B5B
:100FB00010F8341000290DD002290BD2042101EBC6
:100FC000C4014158486807F0AFF82046BDE810401A
:100FD00009F078BB10BD000080B10020002805D0CA
:100FE000034A916B016001B1486090637047000053
:100FF00080B100202DE9F041044609F051F928485C
:10100000E41C24F00305C16B2D1DA94200D90D4637
:10101000846B13E054F8042CAA420ED184B12168E9
:1010200009B162684A60616809B122680A60826B2E
:10103000A24231D1216881632EE02468002CE9D1DD
:101040008046416B80680F1857F8040C3E1A3068D0
:1010500038B1002009F092FB57F8040C3E1A3068B2
:10106000D0B97068A84217DB3044441B3046241DB9
:1010700009F03CFBD8F80810491BC8F80810D8F84C
:1010800010102944C8F810107068401B02D0314677
:1010900007F04AF844F8045C2046BDE8F0810000FF
:1010A00080B1002010B5002409F0FAF80C490F2097
:1010B00001EBC002126C1AB101EBC000006C08E039
:1010C000401EF5D508E04168A14200D90C46806871
:1010D00010B180680028F6D1A4F10C0010BD00000A
:1010E00080B1002005498A69521C8A61096B01EBB5
:1010F000C0010A78521C0A7000F03CB880B1002090
:1011000010B5FFF7CFFF64220649B0F5800F04D970
:1011100090FBF2F0C969484310BDC9694143B1FB76
:10112000F2F010BD80B100200549102805D94A68A9
:10113000B0EB520F02D3500800E0102088607047D7
:101140003CB200200A4902680B6B52F8082C03EBF2
:10115000C2021378022B03D38B690BB15B1E8B6128
:101160001178491E11700021016008467047000087
:1011700080B10020002806D00349042202EBC00001
:10118000096B08580830704780B1002010B5C2B212
:10119000CBB2D21A00D5524293B25B43C0F30722BE
:1011A000C1F30724121B00D55242000C92B2A0EBEF
:1011B000114002FB023200B2002801DA404200B2C4
:1011C00080B200FB002010BD10B50021084600F0E1
:1011D000E9F943F6FF725042BDE81040134601465C
:1011E000AFF300802DE9FC4107461C4615460E462C
:1011F000042005F0B7FA80461148C068C16C006D44
:101200000F4406440D440444ADF80070ADF804509A
:10121000ADF80260ADF80640684606F0F3FB07E063
:1012200023462A463146384603F08AF806F0ACFBDE
:101230000028F5D1404605F095FABDE8FC81000094
:10124000C80000202DE9F0411C4616460D46074611
:10125000022B02DB0020BDE8F0811C20FFF7CAFE54
:101260000028F8D00DB105610AE0094A52F82410AF
:1012700009B905E011460A68002AFBD10969016134
:1012800084618682002101604160C0E90217E2E7C3
:10129000EC00002070B51D46FFF7D4FF040009D014
:1012A00000F00EF8E068006820B90348006800EB21
:1012B00085008465204670BDD4000020FFF78EBEF7
:1012C00070B590B38269022A30DA1E4C54F82210AD
:1012D00019B944F8220032E019464B68002BFBD1C3
:1012E00006E0CB68C5681B682D68AB4203DD096862
:1012F0000029F6D11AE0C1B1CB68C6681B68366810
:10130000B3420CD1838A012B05D008E01946DB6873
:101310001B68AB4203DB0B68002BF7D129B14B688C
:1013200033B118604A68426004E0FFE7012070BDF5
:1013300044F822004860884200D10021016000206A
:1013400070BD0000EC00002009F060BC022801DB49
:1013500000207047054951F8200004E0C168096881
:101360000029F6D000680028F8D17047EC00002072
:101370002DE9FC4706005BD000F0E2F83B4C8146CB
:101380002068B0F9228000F0E5F8216807468A8CD1
:10139000D01B888441E000BF47F6FF71304601F062
:1013A000DDFB82460146304601F0AEFB2168054672
:1013B00091F82C0000F0030001283FD0022839D01A
:1013C00000204A8C101A4884ADF800006A1E1044B0
:1013D000ADF80400888CADF80200A9F101010844C1
:1013E000ADF806006A465146304601F05DF92168C5
:1013F000BDF8020088845146304600F0B9FE06442C
:1014000030780A281CD00D281AD0BDF800002168B9
:1014100028444884307818B1761C30780028BBD135
:101420002068818C39448184818D21F0030181857C
:10143000BDE8FC8705EBD5704010C2E72846C0E741
:10144000206890F82C1001F0030101290BD002292B
:1014500009D0018C418431780A29DBD1828C02EBDE
:1014600009018184D6E7A0F82280F4E7D4000020A7
:10147000024B1B6859849A84FFF77ABFD40000207E
:101480002DE9F0410B4C2568EC6C2718286DA51848
:101490004618C418002006F0B5FA07E023462A468D
:1014A00031463846FFF70EF906F06EFA0028F5D1FE
:1014B000BDE8F081D400002010B5002400E0012434
:1014C00000F004F80028FAD1204610BD064810B5F7
:1014D0000068002410B1804700B1012405F06AFFC4
:1014E00000B10124204610BDF4000020034951F84A
:1014F0002000C1688A6A082110470000EC00002023
:1015000010B502F04DFFBDE8104002F0CDBF000065
:1015100002490968C9694A6800211047D4000020BF
:10152000024A1268D269526810470000D4000020B5
:1015300010B502F03DFFBDE8104002F0B5BF00005D
:1015400002480068C069407E70470000D400002057
:1015500001F020BB0A490020096891F82C2002F014
:101560000C02042A07D0082A01D00C2A02D1C8692B
:10157000007E40087047C869007E401E704700002A
:10158000D4000020024951F820000069006870472B
:10159000EC000020024951F82000006940687047C3
:1015A000EC00002070B50D4608F0BAFD0446284650
:1015B00008F0BEFD204370BD124810B5016821F04F
:1015C000010101601048012181601049016000683B
:1015D0000F49884200D0FEE701F04CF80D492E205B
:1015E000087000F0E4FE0C4808F00CFE0AF0A2FAC5
:1015F00004460021084600F0AFFC05F03DFF204600
:1016000010BD0000002000E000300240C2A507F439
:10161000CDB5E8B5C800002048B200201CB520B9FF
:101620000C480068006E002812D0FFF75BFD0090A8
:1016300044696846FFF786FD002C09D02046FFF775
:1016400051FD019081688968884701A8FFF77AFDFC
:101650001CBD0000D400002001490A4600F002B879
:1016600001F0FFFF2DE9F04387B015460C465FEA15
:10167000000842D0002000F05BFC81462048006852
:10168000066E4046FFF72EFD00900068806900F06E
:1016900033FC074640F6FF70001904D10098B0F9FA
:1016A0000440B0F906500098611E0289ADF804406C
:1016B0001144ADF808104189681E0844ADF8065081
:1016C000ADF80A0005F0EAFC6846FFF73BFD01A80B
:1016D00006F098F906E02A462146404600F036FB1F
:1016E00006F052F90028F6D1384600F005FC3046E5
:1016F00000F052F9484600F01BFC07B0BDE8F0834B
:10170000D40000202DE9FE4F834619488A46194926
:1017100000680C9E9846407C9146002751F8204076
:10172000E1680968042903D02468002CF8D100E09E
:1017300014B9FFF70BFE04460121E068C26A204697
:101740009047050011D02469A0688047401C02D151
:10175000094C46F001060096CDE9015443464A463D
:101760005146584600F09CF907463846BDE8FE8FC2
:10177000D4000020EC000020B801010838B50400B6
:1017800018D00D480068006EA04201D100F0AAFBFD
:101790002046FFF7A7FC0090406908B100F0DFFD8C
:1017A00000980068FFF78AFD6846FFF7CBFC2046EB
:1017B000FFF7F8FB38BD0000D40000202DE9FF4FF3
:1017C0000746464883B099460068DDF840B08A462F
:1017D000447C434800570128204606DD02F02EFED7
:1017E0008046204602F036FE05E002F015FE8046F7
:1017F000204602F017FE044617B302A901A8FFF71E
:10180000A7FEB7F90060002E00DA0026B7F90250F3
:10181000002D00DA00250199B7F904004144491E62
:1018200008F0DDFD804602980119B7F90600491E4F
:1018300008F0D5FDA8EB0602441B521C641C02E014
:10184000002635464246B9F1000F01D1C4F1000926
:10185000002A01DD002C03DC002007B0BDE8F08F7A
:101860004B4629463046CDF800B0FFF74BFF5FEA04
:10187000000909D000F056F88046484600F08CF880
:101880000027DFF860B01FE0514605988847012027
:10189000E3E7E11B414502DA484600F067F83FB153
:1018A000EA193146484600F099F84846FFF7B6FE77
:1018B000514605988847DBF8001009B10020884799
:1018C0004846FFF7C9FE4744A742E2DB4846FFF718
:1018D00055FF002000F060F8BEE70000D4000020B3
:1018E00008010020F801002038B5002460B1FFF79E
:1018F000F9FB0090006800698068804705F032F9C4
:1019000004466846FFF71EFC204638BD38B5FFF791
:10191000E9FB00F1180400906846FFF713FC20462D
:1019200038BD000038B5002418B907480068006EBB
:1019300038B1FFF7D7FB0090B0F90A406846FFF7CF
:1019400001FC204638BD0000D400002070B50546DB
:101950000024284606F02EFD641C18B1BDE8704036
:1019600000F068B8052CF4DB70BD000038B50C46FB
:1019700020B908480068006E00280AD0FFF7B2FBC3
:101980000090B0F90A10A14200DD44816846FFF7DB
:10199000D9FB38BDD4000020F8B50F4E05003068E3
:1019A000046E16D00CB100F09DFA05F063FC2846D9
:1019B000FFF798FB009031680D660068FFF780FC28
:1019C0006846FFF7BFFB04F015FF04F037FE204622
:1019D000F8BD00F087FAFAE7D40000207CB5154680
:1019E0000C4620B912480068006E00281FD0FFF78F
:1019F00079FB2DB20090C58024B2848004F01EFED5
:101A00000098406980B1FFF76DFB009A0190B2F930
:101A100008108180B2F90A20C28011B10AB1048095
:101A2000458001A8FFF78EFB6846FFF78BFB7CBD66
:101A3000D400002001490A4600F002B801F0FFFF7F
:101A40007FB515460C46060028D0FFF74BFB40F645
:101A5000FF710190091903D1B0F90440B0F90650A3
:101A60000289611E1144ADF80840ADF80C1041899F
:101A7000681E0844ADF80E00ADF80A5001A8FFF743
:101A800061FB02A805F0BEFF06E02A46214630466B
:101A900000F044F905F078FF0028F6D17FBD000082
:101AA0002DE9FF4FDFF8E0B083B01C46DBF80010F3
:101AB000DDE91060924600274B7C3A461299FFF709
:101AC000C1FB05005DD028698068804705F04AF8B1
:101AD00081460AFB09F0C01D4FEAD008FFF710FB52
:101AE000F10705D1C11700EB9170801000EB4000A9
:101AF000002C06DC1838B0FBF8F06442A04200DC91
:101B00000446F00707D10090DDE903012346524661
:101B100000F0AEFB0746002C03DC2846FFF7CEFBA7
:101B20002FE004FB08F01830F10702D0FFF71AFA93
:101B300001E0FFF71CFA06001CD0FFF7D3FA019072
:101B40000560039981800499C180A0F808A04481B0
:101B5000C0F80C80C0E9049701A8FFF7F3FA1298C7
:101B6000AE602861DBF80000407CA861304607B019
:101B7000BDE8F08F2846FFF7A1FB17B13846FFF705
:101B800011FA0020F3E70000D40000202DE9F74F00
:101B90008EB0144689460E98FFF7A4FA0990B0F962
:101BA00008B0B0F90A600068006940680C9009A8A4
:101BB000FFF7C8FA564D574F2868407C57F8200069
:101BC000C1688A6A082190470790182801D320200D
:101BD00007902868407C57F820000069069003C8E9
:101BE0000B904D48814201D0012000E000200A9076
:101BF000002000F0DDFB00287DD1286809EB0B01F7
:101C0000B0F90C20891A491E002902DDABEB010551
:101C100000E05D46B0F90810494505DDA1EB09017A
:101C200089446D1A089101E000210891002D6BDDB7
:101C3000B0F90E20A119891A491E002902DDA6EB70
:101C4000010800E0B046B0F90A00A04204DD061B1E
:101C50003444A8EB060800E00026B8F1000F53DD7D
:101C6000089801900DA95F46DDF830A00E9800910C
:101C7000FFF74CFE774300EB870101982B4601EB01
:101C8000800200994846CDE900A1214600F064FD9C
:101C90000090002838D00A98E8B1DDE906322946DC
:101CA000009800F035FCB0B90698009FDA46D0F8ED
:101CB00010C0BCF1000F05D004235A4639463846FF
:101CC000E04708E00B993868884701C7AAF101008E
:101CD0005FEA000AF6D100990020079ACDE90301D6
:101CE000059001200090CDE9010221460346641CC5
:101CF0002A46484600E007E002F010F9A8F101008A
:101D0000761C5FEA0008ABD111B0BDE8F08F00008F
:101D1000D4000020EC000020C7440008F8B51546A8
:101D20000E460746FFF7DEF9009000681621C068EE
:101D3000426A0020904704466846FFF703FA002CE9
:101D400003D02A4631463846A047F8BDF8B51546B7
:101D50000E460746FFF7C6F9009044696846FFF74C
:101D6000F1F93846FFF7C0FD0346082800DD2CB125
:101D70002A463146384608F069FFF8BD2A46314602
:101D8000384609F003F9F8BD10B5002821D009B391
:101D90000AB3B1F90040B2F900309C4200DA2346A0
:101DA0000380B1F90240B2F902309C4200DA2346C6
:101DB0004380B1F90440B2F904309C4200DD23466F
:101DC0008380B1F90610B2F90620914200DC114679
:101DD000C18010BD11460A6802604968416010BDAB
:101DE00000280BD003880B4403808388194481802A
:101DF000418811444180C1881144C180704700006E
:101E000070B5094C0020D4E900218A420AD0D2E9F9
:101E10000056104608F0A2F920603146284605F029
:101E20000DFC012070BD0000E00100202DE9FC4107
:101E3000154DDDE908742D68B5F90860864200DDAE
:101E40003046B5F90C60964200DA3246824219DB20
:101E5000B5F90A608E4200DD3146B5F90E509D425B
:101E600000DA2B468B420DDB00E02C46E5682D683E
:101E700025B1042D02D02568002DF6D1CDE90074DE
:101E800004F0FCF9BDE8FC81D4000020B0F9022088
:101E9000B1F906309A4213DCB1F90220B0F90630EC
:101EA0009A420DDCB0F90020B1F904309A4207DC07
:101EB000B1F90010B0F90400814201DC0120704743
:101EC000002070470146024870220068FEF7D6B92C
:101ED000D4000020024970220968FEF7CFB9000043
:101EE000D400002010B504F05FFB04F083FCBDE8D3
:101EF000104005F0D3B8000070B504460548022C28
:101F00000068457C02D24474FFF7ECFF024804608D
:101F1000284670BDD40000207401002004F064BB8A
:101F200004F09ABB0149886070470000C800002097
:101F300004F018BC03490968CA6900B1C8611046B9
:101F400070470000D4000020024909688A7E887624
:101F500010467047D4000020094A30B41080094A66
:101F60001180094A1268537C084A52F82330DA6813
:101F7000146A0A46A446014630BC18466047000071
:101F80001001002012010020D4000020EC000020ED
:101F9000024909680A7E087610467047D40000207E
:101FA00003490968B1F92C20888510467047000064
:101FB000D400002003490968B1F92A204885104659
:101FC00070470000D400002002480068002800D0BC
:101FD00000477047EC01002002498A6802B9886016
:101FE000FFF7F2BFE001002010B5040009D008F0AF
:101FF00097FB204608F0E2FD2046BDE81040FEF7C2
:10200000D1BF10BD38B50C4660B1FFF76BF800903A
:102010008089204201D0012400E000246846FFF7B7
:1020200091F800E00124204638BD000038B505468F
:10203000002028600648046844B12046FFF752F8A3
:102040000090006928606846FFF77CF8204638BD9C
:102050004C02002038B504004FF000000D46086027
:1020600011D02046FFF73EF80090846844B16846DE
:10207000FFF768F82046FFF735F800900069286000
:102080006846FFF75FF8204638BD00002DE9F84F9D
:10209000DFF898800546264F98F818008B464107D0
:1020A00038680A9E9946407C924607D402F0C6F9E9
:1020B00004463868407C02F0CDF906E002F0CAF927
:1020C00004463868407C02F0B9F9002785B1441E07
:1020D000B9EB060000D54042142806DB5146BBEBA5
:1020E0000A0000D54042142804DA0120BDE8F88F28
:1020F000641EEDE70A464B4659463846009608F0FE
:1021000063F90C4F4B46524647F835005946204676
:10211000009608F059F907EBC501486008F022FC69
:1021200001210020C8F81C10E0E700001401002085
:10213000D4000020B8B20020014988617047000037
:10214000140100202DE9F041084E0446056830686E
:10215000016828468847074630684168284688470E
:10216000284420603846BDE8F0810000D8000020F7
:102170002DE9F0410C4606460025064F05E038687B
:1021800041683046884706440544641EF7D2284615
:10219000BDE8F081D80000202DE9F0411E46069CE4
:1021A0001746884605463A46A8687F1C3346D0F84D
:1021B00004C041462846E047641EF4D1BDE8F081E2
:1021C00070B5B0F90040091BB0F904408C422CDD19
:1021D00000F11404B0F902500069521B02FB0040E8
:1021E000CA1800EBE104521ED010B0EBE10501F07B
:1021F00007034FF0FF0102F0070221FA03F0C2F1DA
:10220000070201FA02F1CEB221780FD001436D1E10
:1022100004F8011B002D05DDFF2229462046FEF7AC
:102220004DF82C4420783043207070BD304001437D
:10223000217070BD10B5B0F90030B0F90240C91A74
:1022400000F114030069121B02FB003000EBE100F7
:1022500001F0070302788021D9400A43027010BDC3
:10226000B0F90610026951431430FEF72EB8000091
:102270002DE9F843804602F10F000011470003FBEF
:1022800007F01C46154689461430FEF770FE06001E
:1022900013D0FEF727FF0090A0F80080A0F802906E
:1022A0008580C4800649816001218181076168467B
:1022B000FEF748FF3046BDE8F8830020FBE700004A
:1022C0004402010870B5B0F90660B0F904400B682B
:1022D00000F1140596421BDD0069A34202FB005089
:1022E00000EBE30214DA641EE010A0EBE30512F841
:1022F000010B03F00704A040C4B206E045B1083367
:1023000012F8014B23F007036D1E002CF6D004E0F9
:10231000002070BD6006040E5B1C2006FAD5FF2C61
:1023200007D0184602E06406240E401C6606FAD464
:1023300000E0D81DC443640705D006E012F8014B45
:10234000FF2C09D108306D1EF8D5C01A401C0B6057
:1023500070BD6206140E401C2206FAD4F5E738B5AB
:102360000546FEF7BFFE00908189491E0CB28481AC
:102370006846FEF7E7FE002C02D12846FEF712FE63
:1023800038BD000010B54FF4F0442146002009F09C
:1023900035FD2146FEF7FEFD8020FEF7C5FEBDE8B7
:1023A00010400148FFF7BEBD58D70008704770477E
:1023B0000EB508B102AA00E00022002301A9684678
:1023C00000F054FB0EBD0000074910B5CC6818B1F1
:1023D0000120C860801E03E00020C8606FF07F40CD
:1023E00001F000FD204610BD2C02002010B5082A87
:1023F0000EDC0346012A18D0022A56D0042A76D0D1
:1024000010F8042B03F8012B491EF9D1012010BD4F
:10241000102A08DC4FEA000230F8043B22F8023BA5
:10242000491EF9D1F2E7002010BD10F8042BD207A5
:10243000120E491E34D010F8044B491E04F001045A
:1024400042EA84122CD010F8044B491E04F0010417
:1024500042EA441224D010F8044B491E04F001044F
:1024600042EA04121CD010F8044B491E04F0010487
:1024700042EAC40214D010F8044B491E04F00104CF
:1024800042EA84020CD010F8044B491E04F0010407
:1024900042EA440204D010F8044B04F00104224341
:1024A00003F8012B0029C0D1B0E710F8042B9207E4
:1024B000120E491E15D010F8044B491E04F00304F7
:1024C00042EA04120DD010F8044B491E04F0030434
:1024D00042EA840205D010F8044B04F003042243BE
:1024E000491E03F8012B0029DFD18FE7FFE710F821
:1024F000042B1207120E491E05D010F8044B04F0ED
:102500000F042243491E03F8012B0029EFD17DE778
:102510002DE9F0411E680D460446082A09DC0746ED
:10252000012A1AD0022A5BD0042A7DD0082A13D1AE
:102530008DE0102A07DCD3F810C00746BCF1000F6D
:1025400004D0022389E00020BDE8F08101CCB0472F
:1025500027F8020B6D1EF9D18AE001CCB047C00705
:102560004FEA10686D1E36D001CCB04748EA8010A3
:1025700000F0FF086D1E2ED001CCB04748EA401095
:1025800000F0FF086D1E26D001CCB04748EA0010CD
:1025900000F0FF086D1E1ED001CCB04748EAC00015
:1025A00000F0FF086D1E16D001CCB04748EA80004D
:1025B00000F0FF086D1E0ED001CCB04748EA400085
:1025C00000F0FF086D1E06D001CCB04740EA0800BD
:1025D00000F0FF086D1E07F8018B002DBDD147E00C
:1025E00001CCB04780074FEA10686D1E16D001CCB1
:1025F000B04748EA001000F0FF086D1E0ED001CC75
:10260000B04748EA800000F0FF086D1E06D001CCFC
:10261000B04740EA080000F0FF086D1E07F8018B84
:10262000002DDDD124E0FFE701CCB04700074FEAE1
:1026300010686D1E06D001CCB04740EA080000F0DB
:10264000FF086D1E07F8018B002DEDD110E0D3F8C7
:1026500010C0BCF1000F05D001230A4601463846E0
:10266000E04705E001CCB04707F8010B6D1EF9D13A
:10267000012069E70A4810B5816900290ED10121BE
:102680008161FFF77FFE04F0D9F8054905481C3148
:102690000860BDE81040084600F0A0BB10BD000077
:1026A000C80000209DA400087CB5064628480D46B9
:1026B000006868B1002005F0A5F906E06A462946E1
:1026C000304605F035FF05F05FF90028F6D17CBDF6
:1026D000106800901F4C506801902268BDF80000FF
:1026E00032F84C1F0844ADF80000BDF80200918894
:1026F0000844ADF80200BDF8040011880844ADF8A4
:102700000400BDF8060091880844ADF8060068464C
:1027100005F078F90EE000BF2068BDF800106A46A9
:102720004184BDF8021081842946304605F000FF3F
:1027300005F02AF90028EFD1206830F8221F428DD9
:10274000891A01804188C28D891A41807CBD0000B0
:102750000C010020D40000202DE9FF4F8DB0002097
:10276000DDF86CA0164600901D4604460246CAF8E5
:10277000000008AB03A902A800F078F918B1002006
:1027800011B0BDE8F08F0898854200DD0546614F25
:102790000B9561493868407C51F820100491096913
:1027A0000691FEF7A3FE05903868407CFEF7F2FE26
:1027B0005A498146884204D05949894501D00120AF
:1027C00000E000200A9001CE1A9988478346000E47
:1027D000079077D0009870BB0D9800EB04084D4827
:1027E0000068B0F90800404503DDA0EB080780460B
:1027F00000E000270298049900EB840000EB8700BA
:10280000CDE900010B990D98421809920E9B4046A4
:102810001946521EFFF70AFB012000900598182860
:102820000ADA0298DDE9052300EB840000EB87005B
:10283000E91B00F079F812E00A9880B1029800EBE9
:10284000840000EB87070998A0EB08084946386820
:10285000884701C7A8F101005FEA0008F6D13148B6
:10286000C06980B3DDE9020700EB840007EB840256
:10287000CDE902022B4C361F3046E4692B46029903
:10288000A047FF213068B1EB106F02D102980068B9
:1028900004E0029A1268B1EB126F01D1039A106042
:1028A000029806F10406001D02900398001D039093
:1028B0006D1EE7D10397DAF8000040F00101CAF875
:1028C000001020E021E0FFE70798FF2811D0C0F1B9
:1028D000FF02029850F82410584600F027FA039996
:1028E00041F82400DAF8000040F00101CAF80010B5
:1028F00005E00298039950F8240041F82400641C74
:102900006D1E7FF460AF03983AE7039941F824B055
:10291000E8E70000D4000020EC000020C7440008D5
:10292000C5440008040200202DE9F05F0C1E16DDEE
:102930005E68014600EB8405082A12DC611E012A4C
:1029400026D0022A47D0042A6AD0082A07D10719BC
:1029500017F8010DB04745F8040D641EF8D1BDE825
:10296000F09F102AFBDC5F693FB12246BC46BDE800
:10297000F04F02235DF804EB604701EB440700BF12
:1029800037F8020DB04745F8040D641EF8D1E6E7AC
:1029900000EBE10001F0070710F801A98146802053
:1029A00020FA07F8B5F104050AEA0800C7F10701A3
:1029B000C840B04745F804093FB14FEA48604FEAC4
:1029C00010687F1E641EEFD1C9E719F801A9072717
:1029D0004FF00108F6E700EBA10001F0030710F843
:1029E00001A981467900C02020FA01F84FF0060BBA
:1029F000B5F104050AEA0800ABEB4701C840B0474F
:102A000045F804093FB14FEA88604FEA10687F1E1D
:102A1000641EEFD1A3E7032719F801A9B846F7E729
:102A200000EB6100012710F801A9A7438146B90016
:102A3000F02020FA01F84FF0040B2D1F0AEA0800DD
:102A4000ABEB8701C840B04745F804093FB14FEAF6
:102A500008704FEA10687F1E641EEFD17FE719F8F7
:102A600001A901274FF00F08F6E700002DE9F04714
:102A7000224C06461F46A06990468946002540B96B
:102A80000120A06104F120011D480860084600F003
:102A9000A5F9606930B91B480068606110B901F0A0
:102AA000BEFC606107B138604EB1A06830B96069A2
:102AB0008000FEF79FFAA06000B901253060B9F1EF
:102AC000000F0AD0E06830B960698000FEF792FA22
:102AD000E06000B90125C9F80000B8F1000F0AD084
:102AE000206930B960698000FEF784FA206100B97E
:102AF0000125C8F800002846BDE8F0870402002040
:102B000011A500080001002073B5124A01A9009820
:102B10001268904700240090C8B10F490025096849
:102B2000C969496959B10A684AB1019990477CBDA0
:102B30006846FFF707FB0546FEF7EAFC04440198E8
:102B4000401E0190F4D5284600F032F80444204697
:102B50007CBD000050010020D400002073B50D465C
:102B60000098002490B10A490968C969496959B1B6
:102B70004A684AB1294690477CBD6846FFF7E2FAA9
:102B800020B10A2802D0641CAC42F6DB20467CBD92
:102B9000D4000020044AB2F9002002600348B0F9D2
:102BA00000000860704700001001002012010020A2
:102BB00038B5002469460094FEF7B2FC00998142C2
:102BC00000DD0C1A204638BDB0F90030B1F9002004
:102BD000934200DA0280B0F90230B1F90220934248
:102BE00000DA4280B0F90430B1F90420934200DDEC
:102BF0008280B0F90620B1F906108A4200DDC1805A
:102C0000704770B5B1F90040B2F900309C4200DD68
:102C100023460380B1F90250B2F90240A54200DD1B
:102C20002C464480B1F90460B2F90450AE4200DA97
:102C300035468580B1F90610B2F90620914200DBD5
:102C40001146C1809D4201DBA14201DA002070BD26
:102C5000012070BD014602480068407C00F002B8C7
:102C6000D40000202DE9F8430126044689460228B5
:102C700057DADFF8B480080008F1040530D00128E5
:102C800002D002294DD116E055F8240088B920461B
:102C9000FEF75CFB009010B3C0680D21426A6846E5
:102CA000904702003DD049460098904755F82400CF
:102CB0000026401C33E02046FEF748FB009070B130
:102CC000C0680D21426A68469047040029D0D8F8B0
:102CD000000000B1804749460098A047002620E048
:102CE00055F82400012813D12046FEF72FFB009051
:102CF00070B1C0680D21426A68469047070007D04E
:102D0000D8F8000000B1804749460098B84700262F
:102D100055F8240008B1012100E00021401A45F8CF
:102D200024003046BDE8F883CC01002070B5FF23B5
:102D3000B3EB116F29D0C3B200F47F4500F47F04D8
:102D4000060E5343554354435643C2F1FF00CAB2E3
:102D500002FB003201F47F4303FB005301F47F05C3
:102D600005FB0044090E01FB0065C2F307204FF488
:102D70007F4101EA1322090201EA14214FF07F4347
:102D8000104303EA05430843184370BD2DE9F04F93
:102D90000646DDE90CB915460C460020804658452C
:102DA00019D20B9F4FF0FF0A01CE08CCAAEB10629C
:102DB00002FB09F2B2FBFAF1CAB21946FFF7B6FFFD
:102DC00020F07F4001C57F1EEED1099804EB8004FE
:102DD00008F10100E2E7BDE8F08F000002494A690E
:102DE0004260486170470000C800002010B502E052
:102DF00000F8011B521E0AB18307F9D1930818D0BD
:102E000001EB014402F0030204EB042406E010C0CD
:102E10001B1F10C040F8084B40F8044C042BF6DA96
:102E200001E010C05B1E002BFBD102E000F8011B8B
:102E3000521E002AFAD110BD10B5830702D520F822
:102E4000021B521E530811D001EB0144042B09DB75
:102E500010C01B1F10C0042B40F8084B40F8044C56
:102E6000F6DA01E010C05B1E002BFBD1D20700D0C8
:102E7000018010BD00F58060AFF3008010B5002325
:102E8000C0F30B00B0F5006F02DD0123A0F5006078
:102E9000B0F5806F01DDC0F5006081110C4C00F0D1
:102EA0003F00C0F1400234F811005043402A08D0DE
:102EB000102906DA04EB4101C2F14002498801FB06
:102EC000020020308009002B00D0404210BD0000DD
:102ED00008D0000810B5040002D0607910B106E0F7
:102EE000012010BD00202071204600F005F80120CF
:102EF0006071002010BD000008B5006806498842D6
:102F000008D10648416941F040014161406900F043
:102F10004000009008BD0000003002400010024058
:102F200070B5044600F0E8F90546601C02D004487C
:102F30000078044400F0E0F9401BA042FAD370BDD1
:102F40002C00002030B585B0002000900190029048
:102F5000039017480168002927D101210160154815
:102F6000416941F4807141614069022400F480703C
:102F7000049041F20100CDE9000403256946039560
:102F80000D4800F0AFF84FF68070CDE900046946B7
:102F900003950A4800F0A6F84CF23370CDE900041E
:102FA00069460395064800F09DF805B030BD000065
:102FB00024000020001002400020014000180140C1
:102FC000001401402DE9F04300233E4F0F2574E02B
:102FD00001229A400A406ED023F00304E619D6F885
:102FE00008809C074FEA147C05FA0CF909EA0804EA
:102FF000DFF8D480404502D14FF0000824E0DFF82C
:10300000CC80404502D14FF001081DE0DFF8C080C0
:10301000404502D14FF0020816E0DFF8B880404585
:1030200002D14FF003080FE0DFF8AC80404502D139
:103030004FF0040808E0DFF8A480404502D14FF0CB
:10304000050801E04FF0060808FA0CF8A04515D174
:10305000D6F808C02CEA090CC6F808C0204E34681F
:1030600094433460341D266896432660241D2668E8
:1030700096432660241D266896432660FF2A01D8C1
:10308000064601E000F104064FEA830401D9A4F1E9
:103090002004D6F800C005FA04F82CEA080C4FF01A
:1030A000040808FA04F84CEA080CC6F800C0C46822
:1030B00024EA0204C46003F1010331FA03F287D168
:1030C000BDE8F0830000014000080140000C014011
:1030D000001001400014014000180140001C014094
:1030E000000401402DE9F84FDFF8C891002409F1F0
:1030F000040A0AF1040B23460F270BF1040ED1E05A
:103100000125A54006EA0502AA4276D1DFF8A8C14A
:103110004E68A6EB0C0866452BD00DDC032E34D090
:1031200005DC36B3012E19D0022E2FD11BE0112E53
:1031300016D0122E2AD119E0B8F5881F19D006DC56
:10314000B8F5803F15D0B8F5801F1FD111E0B8F554
:10315000001F0ED0B8F5041F18D10AE0CB6815E0A7
:10316000CB681B1D12E0CB6808330FE0CB680C3333
:103170000CE08B682BB1012B4FF0080303D04561A5
:1031800004E0042302E0056100E00023FF2A01D8E7
:10319000064601E000F104064FEA840501D9A5F1D5
:1031A0002005D6F8008007FA05FC28EA0C0803FA87
:1031B00005F548EA0508C6F800804D68ED0070D5B1
:1031C0003E4DAE6946F00106AE61AD6924F00306DE
:1031D00005F0010500953A4D06EB050CDCF80850AA
:1031E000A607360F07FA06F825EA0805DFF8D480A7
:1031F000404503D14FF0000825E052E0DFF8C880D9
:10320000404502D14FF001081DE0DFF8C080404585
:1032100002D14FF0020816E0DFF8B480404502D139
:103220004FF003080FE0DFF8AC80404502D14FF0CB
:10323000040808E0DFF8A080404502D14FF00508FF
:1032400001E04FF0060808FA06F848EA0508CCF84D
:1032500008804D68D9F80060ED034D4601D516434E
:1032600000E096432E604D68DAF80060AD035546E5
:1032700001D5164300E096432E604D68DBF80060F0
:10328000ED025D4601D5164300E096432E604D6881
:10329000DEF80060AD02754601D5164300E09643A6
:1032A0002E60641C0A681646E2407FF429AFBDE830
:1032B000F88F0000000401400000111000100240CF
:1032C0000000014000080140000C014000100140D6
:1032D0000014014000180140001C0140C26821EAAE
:1032E00002030A4043EA0241016170470AB10161E9
:1032F00070470904FBE70000014880687047000040
:103300002C000020024881680278114481607047D7
:103310002C000020074810B5016841F01001016041
:10332000032000F067F8002000F006F800F024F811
:10333000002010BD0020024070B50D4D04464FF432
:103340007A712878B1FBF0F00A490968B1FBF0F016
:1033500000F012FB48B9102C07D200222146501E63
:1033600000F028F800206C6070BD012070BD0000E6
:103370002C000020380000200C4808B5816941F07D
:1033800001018161816901F001010091C16941F090
:103390008051C161C06900F08050009004484168CC
:1033A00021F0E06141F00071416008BD0010024071
:1033B00000000140F0B40E4B1B680C46C3F302231F
:1033C000C3F10705042D00D90425191D072901D2D1
:1033D000002300E0DB1E012606FA05F1491E21400C
:1033E00099409E40761E16403143F0BC08F032B83A
:1033F0000CED00E0064900F0070208684FF6FF03F5
:10340000184040EA0220034A104308607047000059
:103410000CED00E00000FA052DE9F0470F4605002D
:1034200061D0434E306800F00700B84209D23068DE
:1034300020F0070038433060306800F00700B842E1
:1034400051D128683B4C810712D5400703D56068ED
:1034500040F4E06060602878000703D5606840F4BD
:10346000605060606068A96820F0F0000843606008
:103470002878C00728D06868012810D02168022861
:1034800010D0890700292EDA616821F00301014379
:103490006160FFF731FF804641F288390DE0216815
:1034A0008903EFE78901EDE7FFF726FFA0EB0801AD
:1034B000494502D90320BDE8F0876068696800F0DB
:1034C0000C00B0EB810FEFD1306800F00700B8427C
:1034D0000BD9306820F0070038433060306800F0C6
:1034E0000700B84201D00120E5E72878400705D55C
:1034F0006068E96820F4E0600843606028780007AD
:1035000006D56068296920F4605040EAC100606017
:1035100000F038F86168084AC1F30311515CC840F3
:103520000649086006480068FFF706FF0020C2E76A
:10353000002002400010024090CE00083800002019
:10354000300000200448054900684968044AC1F376
:103550000221515CC8407047380000200010024032
:10356000A0CE00080448054900684968044AC1F330
:10357000C221515CC8407047380000200010024052
:10358000A0CE000812A185B00FC98DE80F0014A0CD
:10359000144A006804905168134801F00C03042B8E
:1035A00010D0082B0ED1C1F38343C9031DF80300CB
:1035B0000AD5516804AAC1F34041515C0A4A5043FC
:1035C000B0FBF1F005B0704708494843FAE7000046
:1035D00002030405060708090A0B0C0D0E0F101054
:1035E000010200000010024000127A0000093D00B4
:1035F0002DE9F84F040070D02078C04DC00749D0A5
:103600006868C0F38100012807D06868C0F38100B2
:10361000022809D16868C00306D52868800339D517
:1036200060680028E7D035E06068B0F5803F0BD0D7
:1036300010B1B0F5A02F11D0286820F48030286098
:10364000286820F4802002E0286840F48030286058
:10365000606890B1FFF750FE06460AE0286840F423
:1036600080202860F0E700BFFFF746FE801B64283B
:1036700073D828688003F7D50CE0FFF73DFE0646B7
:1036800005E000BFFFF738FE801B6428F0D82868EB
:103690008003F7D420789A4E80074FF001094FF04D
:1036A000000839D5686810F00C0F07D06868C0F3BF
:1036B0008100022809D16868C00306D42868800701
:1036C00014D52069012808D110E02069B0B1C6F8EE
:1036D0000090FFF711FE074605E00AE1FFF70CFE38
:1036E000C01B0228C4D828688007F7D528686169FC
:1036F00020F0F80040EAC10028600DE0C6F8008024
:10370000FFF7FAFD074604E0FFF7F6FDC01B0228AD
:1037100023D828688007F7D4207800072CD579486B
:10372000A169D9B1C0F80090FFF7E6FD074604E0B3
:10373000FFF7E2FDC01B02280FD8686A8007F7D5A3
:1037400071484FF4FA510068B0FBF1F0009000BFEF
:103750000098411E0091FAD20EE080E0C0F800808F
:10376000FFF7CAFD074604E0FFF7C6FDC01B0228AD
:1037700075D8686A8007F7D42078400760D5E86973
:103780000027C00008D4E86940F08050E861E8698B
:10379000012700F0805000905C480168C90513D4EF
:1037A0000168834641F480710160FFF7A5FD824600
:1037B00006E000BFFFF7A0FDA0EB0A0064284ED88A
:1037C000DBF80000C005F5D5E06801280AD008B193
:1037D000052813D0286A20F001002862286A20F00A
:1037E000040002E0286A40F001002862E06841F22B
:1037F000883B98B1FFF780FD82460BE0286A40F0D5
:1038000004002862EEE700BFFFF776FDA0EB0A0197
:1038100059455AD8286A8007F6D50CE0FFF76CFDA9
:10382000824605E0FFF768FDA0EB0A0159454CD838
:10383000286A8007F6D41FB1E86920F08050E8615B
:10384000E06988B36968C1F38101022944D0022884
:10385000C6F8608004D0FFF74FFD044638E034E03E
:10386000FFF74AFD074604E0FFF746FDC01B0228AC
:103870002BD828688001F7D4206AB0F5803F05D1A5
:103880006868A16820F4003008436860D4E9080142
:103890000843696821F4741108436860C6F86090B1
:1038A000FFF72AFD044606E025E000BFFFF724FDF0
:1038B000001B022809D828688001F7D51BE000BF4B
:1038C000FFF71AFD001B022802D90320BDE8F88F7C
:1038D00028688001F4D40EE00128F7D06868226AD5
:1038E00000F48031914204D1616A00F47010884282
:1038F00001D00120EAE70020E8E7000000100240C4
:103900000000424280044242380000200070004023
:1039100070B515460E46040007D0A069B0F5807F4B
:1039200003D094F8410010B107E0012070BD0020E1
:1039300084F84000204600F01DF804F108012068DA
:10394000FCF76AFE3146A2682068FCF799FED4E9CC
:1039500001022946236BFCF741FEA168206850F85C
:10396000212042F0010240F82120012084F841008A
:10397000002070BDFFF7E6BA10B5401EB0F1807FA1
:1039800001D3012010BD4FF0E02460610F216017CA
:1039900007F060FD0020A06107202061002010BD1D
:1039A00070B590F83C20012A2CD0012480F83C40CE
:1039B000022280F83D2003685A689D6822F0700654
:1039C0000A6832435A60104B02689A420ED00F4B7D
:1039D0009A420BD0B2F1804F08D00D4B9A4205D0DD
:1039E0000C4B9A4202D00C4B9A4204D1496825F004
:1039F00080031943916080F83D40002180F83C101D
:103A0000084670BD022070BD002C0140003401400A
:103A10000004004000080040000C004010B5040005
:103A200003D094F83D0010B107E0012010BD002044
:103A300084F83C00204600F01FF8022084F83D0086
:103A4000211D206803F01EFA012084F8460084F846
:103A50003E0084F83F0084F8400084F8410084F878
:103A6000420084F8430084F8440084F8450084F858
:103A70003D00002010BD000008B5006806498842DE
:103A800008D10648816941F400518161806900F4E0
:103A90000050009008BD00000034014000100240BA
:103AA00090F83D10012901D001207047022180F8D3
:103AB0003D1000680E4988420ED00E4988420BD056
:103AC000B0F1804F08D00C49884205D00B4988429C
:103AD00002D00B49884204D1816801F00701062910
:103AE00003D0016841F0010101600020704700002F
:103AF000002C014000340140000400400008004058
:103B0000000C004001680A6A41F211131A4207D101
:103B10000A6A9B101A4203D10A6822F001020A6065
:103B2000012180F83D100020704770B5044690F8E0
:103B30003C00012817D0012584F83C50022084F86D
:103B40003D002068826822F0770222F47F42826082
:103B50000868502830D00DDC20284DD005DC98B303
:103B600010283BD148E0022070BD302844D04028C6
:103B700034D139E0602828D0702806D0B0F5805FB5
:103B80002CD0B0F5005F29D10AE0CB68D1E9012142
:103B9000206803F0BDF92068816841F0770109E0F1
:103BA000CB68D1E90121206803F0B2F9206881686F
:103BB00041F48041816011E0CA684968206803F0DF
:103BC000B9F95021206807E016E0CA684968206802
:103BD00003F0C1F96021206803F0A4F984F83D5096
:103BE000002084F83C0070BDCA684968206803F072
:103BF000A1F940212068EFE7226801461046EBE773
:103C000010B5040013D0242084F839002068C1685E
:103C100021F40051C160204600F03CF80020E06330
:103C200084F8390084F83A0084F8380010BD012087
:103C300010BD70B5040004D094F83900002510B10F
:103C400006E0012070BD84F83850204600F038F8B6
:103C5000242084F839002068C16821F40051C16033
:103C6000204603F08BF92068016921F4904101613D
:103C70002068416921F02A0141612068C16841F44E
:103C80000051C160E563202084F8390084F83A00CF
:103C9000002070BD00680749884209D10648816943
:103CA00021F4804181614FF4C0610448FFF78AB973
:103CB0007047000000380140001002400008014039
:103CC00030B585B0002400940194029403940068F8
:103CD0001449884224D11448816941F480418161AA
:103CE000816901F480410491816941F0040181619D
:103CF00080690E4D00F0040004904FF400700090B5
:103D0000022001900320039069462846FFF7EAF954
:103D10002815CDE90004694628460294FFF7E2F928
:103D200005B030BD003801400010024000080140DD
:103D30002DE9F843044690F839001F4616460D4613
:103D400020284CD1C5B1BEB194F83800012846D026
:103D5000012084F838004FF00008C4F83C8021208E
:103D600084F83900FFF7C8FAA6848146E684A06883
:103D7000B0F5805F03D004E00120BDE8F88320693E
:103D800028B12E465FF0000584F838800EE000264A
:103D9000FAE78021204603F04DF9A0B9AEB116F83C
:103DA000010B21684860E08C401EE084E08C4B46AB
:103DB0004FF0000200970028EBD14FF04001204661
:103DC00003F038F930B10320D7E735F8020BC0F320
:103DD0000800E6E7202084F839000020CDE7022023
:103DE000CBE7000002490A680860104670470000EF
:103DF0006002002070B50A490646002408884D88F4
:103E000021464543204602F039FC02F005FDB0B2E0
:103E1000044901E00880641CAC42FBD370BD000083
:103E2000AC0200200008006C0449054A0968497C7E
:103E300052F821100969096808470000D4000020E1
:103E4000EC0000202DE9F04F33492C240A468871FC
:103E50002A2592882B2645F2105B4FF4305E4FF4F2
:103E600048774FF0F00949F2413A4FF4A07845F213
:103E7000103C4FF4F07358B1A1F80080A1F8029003
:103E8000524501D0624529D10C814D818E8139E0A6
:103E9000A1F80090A1F80280524501D0624508D1F6
:103EA0000C814D818E81624531D1A1F800804B801B
:103EB0002DE05A4508D1A1F808E04FF42850488178
:103EC0004FF42C50888106E0A2F5C85063381ED10B
:103ED0000C814E818D810B804F8018E05A4508D1AE
:103EE000A1F808E04FF4285048814FF42C50888105
:103EF00006E0A2F5C850633804D10C814D818E8153
:103F00000F804B80624502D10B80A1F80280BDE892
:103F1000F04F002002F09CBAAC0200202DE9F04FD7
:103F200005468DB07B48DDF860901A9C00681E46FF
:103F300017464FF0000A78B11B9B199ACDF80890EC
:103F40000593CDE90324DDE91623CDE900230468B8
:103F500033463A46284680E0DDE9160201EB0608C2
:103F600005EB070C1043A8F10108ACF1010C012886
:103F700006D0C9F108000590002002910990C6E022
:103F800065480268B2F90A30581A002806DD361A68
:103F9000002E63DD1946199B00FB0344B2F90E00A5
:103FA000A8EB0000002802DD361A002E56DDB2F91B
:103FB0000C00ACEB0000002800DD3F1AB2F908301D
:103FC0000020AB4235DD581B3F1A4B46B9F1080FB4
:103FD00026D006DC012B0BD0022B11D0042B28D1CC
:103FE00016E0102B1ED0182B1FD0202B21D11CE047
:103FF00020F0070304EBE0041D4400F0070018E084
:1040000020F0030304EBA0041D4400F0030010E0C3
:1040100020F0010304EB60041D4400F0010008E0FF
:10402000044404E004EB400401E004EB8004054494
:104030000020002F12DD1B9BDDF864C0CDE90403D6
:10404000CDE90069CDE902C4527C34483B4650F8C2
:104050002200C26854680A462946A0470DB0BDE850
:10406000F08F1799029808440C902B49401E00903D
:104070000A68B2F90A30834241DCB2F90E100298A4
:1040800081423CDB4FF0000BD84603950A9434E0A4
:10409000BBF1000F05D10A984FF0080B10F801ABE7
:1040A0000A900599ABEB090B3AFA01F00AFA09F10B
:1040B00001F0FF0A04D118490968097C890716D460
:1040C00015490968C96B0A680B921B9A0AB152F824
:1040D0002000086016990398009B4218521E02990E
:1040E00000F02EF90C490B980968C96B0860039918
:1040F000169808F1010808440390B845C8DB0998F0
:10410000401C09900C980290199804440998B042F8
:10411000A7DBA3E70C010020D4000020EC00002066
:10412000F0B40C4612490968B1F90A30A3421CDC0C
:10413000B1F90E30A34218DBB1F90830834200DD3B
:104140001846B1F90C30934200DA1A4682420CDB71
:104150004B7C084951F8235013462246E9688E6883
:1041600001462846B446F0BC6047F0BC70470000EA
:10417000D4000020EC0000200A46174930B409683A
:10418000B1F90A30934225DCB1F90E30934221DBBC
:10419000B1F9083083421DDCB1F90C30834219DBE0
:1041A0000B7C0E4CDB0709D0497C54F82130D968D0
:1041B000CC690146A44630BC18466047CB6B497CAD
:1041C0001B6854F82140E1688D6901462046AC46E1
:1041D00030BC604730BC7047D4000020EC000020A9
:1041E000124B30B41B68B3F9084084421CDCB3F9AD
:1041F0000C40844218DBB3F90A408C4200DD2146B2
:10420000B3F90E40944200DA22468A420CDB5C7C11
:10421000074B53F82440E368DD6813460A4601461D
:104220002046AC4630BC604730BC7047D40000200C
:10423000EC0000202DE9F047DFF8B490DFF8B480FF
:104240004B46B9F804609C8992460D0A070A5B89BF
:10425000A6F5134C08F10202BCF1410C10D0A6F5F2
:10426000A04CBCF5447C0BD0A6F5A04CBCF5A26CD0
:104270000ED0A6F5C85C4F46BCF1630C17D02EE0FB
:10428000A8F800301780C0B21080A8F8004023E0E2
:10429000A8F8003017805B1CA8F80030C0B210806E
:1042A000A8F800401580641CA8F8004015E0BE790D
:1042B00026B9B9F80060301A401E80B2A8F8003064
:1042C000030A1380C6B216801380C0B21080A8F80B
:1042D00000401580C8B210801580C8B21080B9F8AF
:1042E0000800A8F80000A2F800A0BDE8F0870000D0
:1042F000AC020020FE07006C2DE9F0438146A2EBE2
:1043000009020798521C1F4695B20C4686B2DFF888
:104310002C800FE02146484602F0B0F902F07CFA0A
:104320000020414602E00E80401C80B2A842FAD331
:10433000641CA4B2BC42EDD9BDE8F0830008006C57
:1043400038B5134C2468B4F90850854200DD28467E
:10435000B4F90C50954200DA2A46824217DBB4F9D0
:104360000A508D4200DD2946B4F90E509D4200DA14
:104370002B468B420BDB0093647C064B53F82440A6
:10438000E3681D6913460A4601462046A84738BD22
:10439000D4000020EC000020082105F00DBE000034
:1043A00002480068806B006870470000D40000205D
:1043B00002480068C06B006870470000D40000200D
:1043C000024809210068407C05F0F6BDD4000020B9
:1043D000092105F0F1BD70B500252C462046FCF7FB
:1043E000B5FF00B16D1C641C022CF7DB284670BDC4
:1043F00002480068407C00F003B80000D4000020B0
:1044000010B5FCF7A3FF002805D0C168CA6ABDE853
:1044100010400221104710BD032105F0CDBD03203F
:1044200005F012BE042105F0C7BD000002480121BD
:104430000068407C05F0C0BDD4000020012105F0DB
:10444000BBBD0000024802210068407C05F0B4BDFD
:10445000D4000020022105F0AFBD00F001B800003B
:104460002DE9F041002809D0876837B10D4E7168F9
:1044700019B10468B4F5807F02DD0020BDE8F08149
:104480003068844200DD0446002507E057F8250027
:10449000FFF7CAFC716841F825006D1CA542F5DBE9
:1044A0007068EBE75C0100200449054A0968497C13
:1044B00052F821100969496808470000D40000201B
:1044C000EC0000207047704710B500F01F01074A4C
:1044D000074BC0F34514C0F3C4201B5D105C515C56
:1044E00000EB032000EB014010BD000094EB00083E
:1044F000B4EB00082DE9F04FFE4895B08069FD4906
:1045000040F0080088618869032400F008000090EA
:104510000120CDE912041090119010A9F648FEF781
:10452000E1FDF6484FF0204BF5490622C0F800B0F7
:10453000C0E9011200211023C160C0E904138161A8
:104540001B02C161C0E909139B00C0E90B13416361
:1045500081631A20CDE90A100F9109920294059106
:10456000CDE90312089102AA09A9E448FFF7D0F99E
:104570003220FEF7D5FCE34DD3202880AC1C2088E8
:10458000DE4E2088483620884FF6FF7101EA002170
:10459000208849F241380843B08045F2103945F28D
:1045A000105741F6631A40452FD0D4202880208828
:1045B000208821884FF6FF7000EA012221881143EC
:1045C000B180494521D04FF45A41298021884FF4C8
:1045D0005B41298021884FF45C4200EA01212A8056
:1045E00022880A43B280B2F5004F7DD0BA420CD087
:1045F000A12129802188218800EA012120880843FF
:10460000A0F5AE41B08061396FD0B08840456DD122
:10461000CF20288000202080C120208030202080D2
:10462000ED2028806420208003202080122020801C
:1046300081202080E8202880852020801020208074
:104640007A202080CB202880392020802C202080B8
:10465000002020803420208002202080F720288025
:1046600020202080EA202880002020802080C02078
:1046700028801B202080C120288001202080C52088
:104680002880302020802080C7202880B7202080EC
:1046900036202880482020803A20288055202080FD
:1046A000B1202880002020801A202080B620288079
:1046B0000A202080A2202080F22028800020208054
:1046C0002620288001202080E02028800F202080C4
:1046D0002A20208028202080082020800E20208072
:1046E00008202080542002E04BE046E04BE0208090
:1046F000A9202080432020800A2020800F202080B5
:1047000000202080208020802080E1202880002040
:104710002080152020801720208007202080112055
:104720002080062020802B202080562020803C20C6
:10473000208005202080102020800F2020803F2016
:10474000208020800F2020802B20288000202080A7
:104750002080012020803F2020802A2028800020E7
:10476000208020802080EF20208011202880782049
:10477000FEF7D6FB292001F03CBCA6F804A001F00E
:104780003CBCB780FEE348457ED1ED202880012067
:104790002080FE202080EE202880DE202080212026
:1047A0002080F120288001202080DF202880102018
:1047B0002080C42028808F202080C62028800020D0
:1047C0002080E220208020802080BF202880AA2016
:1047D0002080B02028800D202080002020800D2007
:1047E000208000202080112020800020208019209F
:1047F00020800020208021202080002020802D206B
:104800002080002020803D202080002020805D200E
:104810002080002020805D20208000202080B1208A
:10482000288080202080002020808B202080002075
:1048300020809620208000202080B2202880002028
:1048400020802080022020800020208003202080E3
:1048500000202080B320288000202080208020801D
:104860002080208020802080208020802080208048
:104870002080208020802080208020802080208038
:1048800020802080208000E0FEE320802080B42073
:1048900028808B20208000202080962020800020EF
:1048A0002080A120208000202080B52028800220A8
:1048B00020800020208003202080002020800420F1
:1048C000208000202080B6202880002020802080AA
:1048D000B72028800020208020803F2020800020DA
:1048E00020805E2020800020208064202080002006
:1048F000208009E000100240000C0140640200200A
:10490000040100A0FE07006C8C2020800020208085
:10491000AC20208000202080DC202080002020800F
:104920007020208000202080902020800020208087
:10493000EB20208000202080DC20208000202080B0
:10494000B8202880002020802080208020802080A7
:10495000208020802080BA202880242020800020F1
:10496000208020802080C1202880202020800020DE
:1049700020805420208000202080FF2020800020E4
:104980002080C22028800A2020800020208004204F
:10499000208000202080C32028803C202080002010
:1049A00020803A2020800020208039202080002094
:1049B000208037202080002020803C202080002084
:1049C000208036202080002020803220208000207F
:1049D00020802F202080002020802C20208000207C
:1049E0002080292020800020208026202080002078
:1049F000208024202080002020802420208000206F
:104A0000208023202080002020803C202080002047
:104A1000208036202080002020803220208000202E
:104A200020802F202080002020802C20208000202B
:104A30002080292020800020208026202080002027
:104A4000208024202080002020802420208000201E
:104A500020802320208000202080C4202880622005
:104A600020800020208005202080002020808420BD
:104A7000208000202080F02020800020208018202E
:104A8000208000202080A42020800020208018206A
:104A900020800020208050202080002020800C20BA
:104AA000208000202080172020800020208095205A
:104AB000208000202080F320208000202080E6201D
:104AC000208000202080C5202880322020800020E7
:104AD000208044202080002020806520208000202D
:104AE00020807620208000202080882020800020C8
:104AF0002080C620288020202080002020801720B1
:104B00002080002020800120208000202080C720DD
:104B1000288000202080208020802080C8202880BD
:104B200000202080208020802080C9202880002034
:104B30002080208020802080208020802080208075
:104B40002080208020802080208020802080208065
:104B5000E020288016202080002020801C2020803B
:104B600000202080212020800020208036202080EE
:104B7000002020804620208000202080522020809D
:104B80000020208064202080002020807A20208047
:104B9000002020808B2020800020208099202080F1
:104BA00000202080A820208000202080B9202080A4
:104BB00000202080C420208000202080CA20208067
:104BC00000202080D220208000202080D92020803A
:104BD00000202080E020208000202080F320208002
:104BE00000202080E12028801620208000202080C6
:104BF0001C20208000202080222020800020208077
:104C00003620208000202080452020800020208029
:104C100052202080002020806420208000202080DE
:104C20007A202080002020808B202080002020807F
:104C30009920208000202080A82020800020208033
:104C4000B920208000202080C420208000202080E7
:104C5000CA20208000202080D220208000202080B8
:104C6000D820208000202080E0202080002020808C
:104C7000F320208000202080E22028800520208052
:104C8000002020800B202080002020801B202080FE
:104C9000002020803420208000202080442020809C
:104CA000002020804F202080002020806120208054
:104CB00000202080792020800020208088202080F3
:104CC000002020809720208000202080A6202080A7
:104CD00000202080B720208000202080C22020805B
:104CE00000202080C720208000202080D12020802C
:104CF00000202080D620208000202080DD20208001
:104D000000202080F320208000202080E3202880C5
:104D100005202080002020800A2020800020208084
:104D20001C20208000202080332020800020208034
:104D300044202080002020805020208000202080DF
:104D40006220208000202080782020800020208089
:104D50008820208000202080972020800020208034
:104D6000A620208000202080B720208000202080E6
:104D7000C220208000202080C720208000202080AA
:104D8000D120208000202080D5202080002020807D
:104D9000DD20208000202080F32020800020208043
:104DA000E420288001202080002020800120208015
:104DB0000020208002202080002020802A202080C7
:104DC000002020803C202080002020804B2020805C
:104DD000002020805D202080002020807420208002
:104DE00000202080842020800020208093202080AC
:104DF00000202080A220208000202080B32020805E
:104E000000202080BE20208000202080C420208020
:104E100000202080CD20208000202080D3202080F2
:104E200000202080DD20208000202080F3202080B2
:104E300000202080E5202880002020802080208005
:104E40002080022020800020208029202080002037
:104E500020803C202080002020804B2020800020CB
:104E600020805D2020800020208074202080002071
:104E7000208084202080002020809320208000201B
:104E80002080A220208000202080B32020800020CD
:104E90002080BE20208000202080C4202080002090
:104EA0002080CD20208000202080D3202080002062
:104EB0002080DC20208000202080F3202080002023
:104EC0002080E620288011202080002020803420AF
:104ED0002080002020805620208000202080762006
:104EE00020800020208077202080002020806620E5
:104EF0002080002020808820208000202080992091
:104F0000208000202080BB2020800020208099204D
:104F100020800020208066202080002020805520D6
:104F200020800020208055202080002020804520E7
:104F300020800020208043202080002020804420EA
:104F4000208000202080E720288032202080002040
:104F50002080552020800020208076202080002086
:104F60002080662020800020208067202080002074
:104F70002080672020800020208087202080002043
:104F8000208000E0BCE09920208000202080BB2011
:104F90002080002020809920208000202080772001
:104FA0002080002020804420208000202080562067
:104FB000208000202080232020800020208033209B
:104FC0002080002020804520208000202080E820B4
:104FD00028800020208020809920208000202080B0
:104FE00087202080002020808820208000202080B2
:104FF00077202080002020806620208000202080D4
:105000008820208000202080AA202080002020806E
:10501000BB2020800020208099202080002020803C
:1050200066202080002020805520208000202080C5
:1050300055202080002020804420208000202080D7
:1050400044202080002020805520208000202080C7
:10505000E9202880AA202080002020802080208035
:105060002880AA202080CF20288000202080208037
:105070002080208020802080208020802080208030
:1050800020802080208000E038E020802080208068
:105090002080F020288000202080502020800020C8
:1050A000208020802080F320288000202080F9208C
:1050B00028800620208010202080292020800020A9
:1050C00020803A20288055202080112028806420CC
:1050D000FDF726FF29202880352028800020208009
:1050E00051202880FF202080532028802C202080E1
:1050F00055202880822020802C20FDE3B8427DD1DD
:105100004FF470435521184601F090FB4FF2010413
:10511000AA21204601F08AFB5221601C01F086FB87
:105120000821A01C01F082FB0121E01C01F07EFBA4
:105130000D214FF4304001F079FB0D214BF20100BD
:1051400001F074FB0D214BF2020001F06FFB3421E2
:105150004FF4364001F06AFB34214BF2016001F05C
:1051600065FB34214BF2026001F060FB0D214FF42E
:10517000314001F05BFB0D214BF2011001F056FBB9
:105180000D214BF2021001F051FB34214FF4374056
:1051900001F04CFB34214BF2017001F047FB34214C
:1051A0004BF2027001F042FB00214FF4324001F05B
:1051B0003DFB00214BF2012001F038FB00214BF2B6
:1051C000022001F033FB24214FF4384001F02EFB84
:1051D00024214BF6010001F029FB24214BF60200AB
:1051E00001F024FB01214FF43F4001F01FFB0F2190
:1051F0004FF4334001F01AFB0F2100E0FEE34BF2C5
:10520000013001F013FB0F214BF2023001F00EFBD5
:1052100034214FF4394001F009FB34214BF60110E1
:1052200001F004FB34214BF6021001F0FFFA0821D3
:105230004FF4354001F0FAFA08214BF2015001F029
:10524000F5FA08214BF2025001F0F0FA03214FF475
:10525000424001F0EBFA24214FF43A4001F0E6FA23
:1052600024214BF6012001F0E1FA24214BF6022023
:1052700001F0DCFA00214FF43C4001F0D7FA78212C
:105280004BF6014001F0D2FA00214BF6024001F04A
:10529000CDFA00214FF43D4001F0C8FA78214BF6D9
:1052A000015001F0C3FA00214BF6025001F0BEFAA2
:1052B00000214FF43E4001F0B9FA64214BF6016041
:1052C00001F0B4FA00214FF4514001F0AFFA33215C
:1052D0004DF2011001F0AAFA00214DF2021001F086
:1052E000A5FA34214DF2031001F0A0FA00214DF28D
:1052F000041001F09BFA3A214DF2051001F096FAE4
:1053000000214DF2061001F091FA4A214DF20710EA
:1053100001F08CFA00214DF2081001F087FA5C21AF
:105320004DF2091001F082FA00214DF20A1001F04D
:105330007DFA81214DF20B1001F078FA00214DF237
:105340000C1001F073FAA6214DF20D1001F06EFA67
:1053500000214DF20E1001F069FAE5214DF20F1017
:1053600001F064FA01214DF2101001F05FFA1321EF
:105370004DF2111001F05AFA01214DF2121001F014
:1053800055FA54214DF2131001F050FA01214DF25B
:10539000141001F04BFA82214DF2151001F046FA7B
:1053A00001214DF2161001F041FACA214DF21710F9
:1053B00001F03CFA02214DF2181001F037FA0021F9
:1053C0004DF2191001F032FA02214DF21A1001F0DB
:1053D0002DFA01214DF21B1001F028FA02214DF2A5
:1053E0001C1001F023FA34214DF21D1001F01EFAB9
:1053F00002214DF21E1001F019FA67214DF21F1023
:1054000001F014FA02214DF2201001F00FFA84216C
:105410004DF2211001F00AFA02214DF2221001F0A2
:1054200005FAA4214DF2231001F000FA02214DF2F9
:10543000241001F0FBF9B7214DF2251001F0F6F927
:1054400002214DF2261001F0F1F9CF214DF2271083
:1054500001F0ECF902214DF2281001F0E7F9DE210C
:105460004DF2291001F0E2F902214DF22A1001F06B
:10547000DDF9F2214DF22B1001F0D8F902214DF2A5
:105480002C1001F0D3F9FE214DF22D1001F0CEF9D0
:1054900003214DF22E1001F0C9F910214DF22F1009
:1054A00001F0C4F903214DF2301001F0BFF93321AE
:1054B0004DF2311001F0BAF903214DF2321001F032
:1054C000B5F96D214DF2331001F0B0F900214FF420
:1054D000524001F0ABF933214DF2012001F0A6F961
:1054E00000214DF2022001F0A1F934214DF20320F8
:1054F00001F09CF900214DF2042001F097F93A21C6
:105500004DF2052001F092F900214DF2062001F044
:105510008DF94A214DF2072001F088F900214DF262
:10552000082001F083F95C214DF2092001F07EF999
:1055300000214DF20A2001F079F981214DF20B2072
:1055400001F074F900214DF20C2001F06FF9A62151
:105550004DF20D2001F06AF900214DF20E2001F00C
:1055600065F9E5214DF20F2001F060F901214DF2BE
:10557000102001F05BF913214DF2112001F056F9D2
:1055800001214DF2122001F051F954214DF2132066
:1055900001F04CF901214DF2142001F047F982216C
:1055A0004DF2152001F042F901214DF2162001F0D3
:1055B0003DF9CA214DF2172001F038F902214DF2D0
:1055C000182001F033F900214DF2192001F02EF9D5
:1055D00002214DF21A2001F029F901214DF21B2080
:1055E00001F024F902214DF21C2001F01FF93421B1
:1055F0004DF21D2001F01AF902214DF21E2001F09A
:1056000015F967214DF21F2001F010F902214DF22A
:10561000202001F00BF984214DF2212001F006F940
:1056200002214DF2222001F001F9A4214DF22320A4
:1056300001F0FCF802214DF2242001F0F7F8B72127
:105640004DF2252001F0F2F802214DF2262001F062
:10565000EDF8CF214DF2272001F0E8F802214DF2BC
:10566000282001F0E3F8DE214DF2292001F0DEF8D8
:1056700002214DF22A2001F0D9F8F2214DF22B201F
:1056800001F0D4F802214DF22C2001F0CFF8FE21D8
:105690004DF22D2001F0CAF803214DF22E2001F029
:1056A000C5F810214DF22F2001F0C0F803214DF272
:1056B000302001F0BBF833214DF2312001F0B6F873
:1056C00003214DF2322001F0B1F86D214DF233206B
:1056D00001F0ACF800214FF4534001F0A7F833215A
:1056E0004DF2013001F0A2F800214DF2023001F03C
:1056F0009DF834214DF2033001F098F800214DF26D
:10570000043001F093F83A214DF2053001F08EF8A3
:1057100000214DF2063001F089F84A214DF20730A0
:1057200001F084F800214DF2083001F07FF85C218F
:105730004DF2093001F07AF800214DF20A3001F003
:1057400075F881214DF20B3001F070F800214DF217
:105750000C3001F06BF8A6214DF20D3001F066F827
:1057600000214DF20E3001F061F8E5214DF20F30CD
:1057700001F05CF801214DF2103001F057F81321CF
:105780004DF2113001F052F801214DF2123001F0CA
:105790004DF854214DF2133001F048F801214DF23B
:1057A000143001F043F882214DF2153001F03EF83B
:1057B00001214DF2163001F039F8CA214DF21730AF
:1057C00001F034F802214DF2183001F02FF80021D9
:1057D0004DF2193001F02AF802214DF21A3001F091
:1057E00025F801214DF21B3001F020F802214DF285
:1057F0001C3001F01BF834214DF21D3001F016F879
:1058000002214DF21E3001F011F867214DF21F30D8
:1058100001F00CF802214DF2203001F007F884214C
:105820004DF2213001F002F802214DF2223000F059
:10583000FDFFA4214DF2233000F0F8FF02214DF2CC
:10584000243000F0F3FFB7214DF2253000F0EEFFD9
:1058500002214DF2263000F0E9FFCF214DF2273032
:1058600000F0E4FF02214DF2283000F0DFFFDE21DE
:105870004DF2293000F0DAFF02214DF22A3000F01B
:10588000D5FFF2214DF22B3000F0D0FF02214DF276
:105890002C3000F0CBFFFE214DF22D3000F0C6FF82
:1058A00003214DF22E3000F0C1FF10214DF22F30B8
:1058B00000F0BCFF03214DF2303000F0B7FF332180
:1058C0004DF2313000F0B2FF03214DF2323000F0E2
:1058D000ADFF6D214DF2333000F0A8FF00214FF4F1
:1058E000544000F0A3FF33214DF2014000F09EFF31
:1058F00000214DF2024000E07BE300F097FF3421ED
:105900004DF2034000F092FF00214DF2044000F000
:105910008DFF3A214DF2054000F088FF00214DF245
:10592000064000F083FF4A214DF2074000F07EFF61
:1059300000214DF2084000F079FF5C214DF2094052
:1059400000F074FF00214DF20A4000F06FFF81214A
:105950004DF20B4000F06AFF00214DF20C4000F0C8
:1059600065FFA6214DF20D4000F060FF00214DF2D1
:105970000E4000F05BFFE5214DF20F4000F056FFB6
:1059800001214DF2104000F051FF13214DF2114062
:1059900000F04CFF01214DF2124000F047FF54216E
:1059A0004DF2134000F042FF01214DF2144000F08F
:1059B0003DFF82214DF2154000F038FF01214DF2EC
:1059C000164000F033FFCA214DF2174000F02EFFC1
:1059D00002214DF2184000F029FF00214DF219403C
:1059E00000F024FF02214DF21A4000F01FFF0121B8
:1059F0004DF21B4000F01AFF022100E0FBE24DF2E5
:105A00001C4000F013FF34214DF21D4000F00EFF4A
:105A100002214DF21E4000F009FF67214DF21F40A8
:105A200000F004FF02214DF2204000F0FFFE84212F
:105A30004DF2214000F0FAFE02214DF2224000F02A
:105A4000F5FEA4214DF2234000F0F0FE02214DF2BC
:105A5000244000F0EBFEB7214DF2254000F0E6FEB9
:105A600002214DF2264000F0E1FECF214DF2274009
:105A700000F0DCFE02214DF2284000F0D7FEDE21CE
:105A80004DF2294000F0D2FE02214DF22A4000F0F2
:105A9000CDFEF2214DF22B4000F0C8FE02214DF266
:105AA0002C4000F0C3FEFE214DF22D4000F0BEFE62
:105AB00003214DF22E4000F0B9FE10214DF22F408F
:105AC00000F0B4FE03214DF2304000F0AFFE332170
:105AD0004DF2314000F0AAFE03214DF2324000F0B9
