:020000040800F2
:1000000018B7002045010008CB5A00080F0200086D
:10001000C95A0008D7050008B55D000800000000B7
:10002000000000000000000000000000CD5A0008A1
:10003000D90500080000000097010008CF5A000809
:100040005F0100085F0100085F0100085F01000810
:100050005F0100085F0100085F0100085F01000800
:100060005F0100085F0100085F0100085F010008F0
:100070005F0100085F0100085F0100085F010008E0
:100080005F0100085F0100085F0100085F010008D0
:100090005F0100085F0100085F0100085F010008C0
:1000A0005F0100085F0100085F0100085F010008B0
:1000B0005F0100085F0100085F0100085F010008A0
:1000C0005F0100085F0100085F0100085F01000890
:1000D0005F0100085F0100085F0100085F01000880
:1000E0005F0100085F0100085F0100085F01000870
:1000F0005F0100085F0100085F0100085F01000860
:100100005F0100085F0100085F0100085F0100084F
:100110005F0100085F0100085F0100085F0100083F
:100120005F0100085F0100085F0100085F0100082F
:10013000DFF80CD000F0FAF900480047C5050008C8
:1001400018B700200648804706480047FEE7FEE74C
:10015000FEE7FEE7FEE7FEE7FEE7FEE7FEE7FEE777
:100160009D5B000831010008EFF3108072B6704704
:1001700080F310887047334A1368012B04D04FF086
:1001800001031360304A1060304A116030484FF06C
:10019000805101607047EFF3108272B62948016800
:1001A00091B14FF0000101602748016829B1EFF3D8
:1001B000098121E9F00F0068016024490968096894
:1001C000B1E8F00F81F3098882F310884EF0040E35
:1001D00070471E4908601C494FF00000086019492B
:1001E0004FF0010008601B484FF47F01D0F8002059
:1001F00041EA0201016016484FF080510160164843
:100200000068006880F3088861B662B670471EF027
:10021000040F0CBFEFF30880EFF3098020E9F00F23
:1002200040F804ED1EF0040F0CBF80F3088880F343
:10023000098800B509F0C8FA5DF804EB4EF0040E29
:100240007047000050000020480000204C000020B3
:1002500004ED00E020ED00E008ED00E0202A04DBE2
:10026000203A21FA02F00021704721FA02F3D0402F
:10027000C2F12002914008431946704710B5431A55
:10028000934209D28318881803E010F8011D03F87F
:10029000011D521EF9D210BD40EA01039B0703D095
:1002A00009E008C9121F08C0042AFAD203E011F8B5
:1002B000013B00F8013B521EF9D210BDD2B201E061
:1002C00000F8012B491EFBD270470022F6E710B55B
:1002D00013460A4604461946FFF7F0FF204610BDB4
:1002E0002DE9FE4F81EA030404F0004421F00041AF
:1002F00000944FF0000B23F0004350EA01045ED05D
:1003000052EA03045BD0C3F30A54C1F30A552C44E8
:10031000A4F2F3340194A0FB0254C1F3130141F49D
:100320008011C3F3130343F4801301FB024400FB69
:10033000034E840A970A44EA815447EA8357A4FB90
:10034000076802958D0A05FB07854FEA932C04FB8D
:100350000C542705029D4FEA065847EA1637B5EBBD
:1003600008056EEB070C870E920E47EA811742EAEA
:100370008312A7FB0201B6EB0B0164EB00042B0D0B
:1003800043EA0C335E1844EB1C50DA465146E7FB57
:100390000201C5F313044FEA0B3343EA14534FEA47
:1003A0000432019C43EA0603A4F10C040294009C6D
:1003B000CDE900B400F06CF803B0BDE8F08F002088
:1003C0000146F9E70EB540F2334102910021CDE933
:1003D00000110A460B4600F05BF803B000BDC1F304
:1003E0000A5210B5C1F3130140F2FF3341F48011FA
:1003F0009A4201DA002010BD40F233439A42A2F241
:10040000334203DC5242FFF729FF10BD904010BD7C
:100410002DE9F05F0546002092469B468846064639
:10042000814640241BE02846414647462246FFF7C6
:1004300015FF53465A46C01A914110D3114618462B
:10044000224600F085F82D1A67EB01084F46224638
:100450000120002100F07CF817EB00094E41201E1E
:10046000A4F10104DFDC484631462A464346BDE894
:10047000F09F10B5141E73F1000408DA401C41F11E
:10048000000192185B411A4301D120F0010010BD18
:100490002DE9F04D92469B4611B1B1FA81F202E08E
:1004A000B0FA80F22032904600F052F804460F462F
:1004B00040EA0A0041EA0B0153465A46084313D06A
:1004C000114653EA010019D0C8F140025046FFF727
:1004D000C5FE05460E4650465946424600F038F8DD
:1004E000084305D0012004E020463946BDE8F08DE0
:1004F0000020054346EAE0762C4337430A9863051B
:10050000E40AA0EB08000022FD0A44EA47540A303E
:1005100002D500200146E9E7010510196941DDE92E
:10052000084500196941BDE8F04DA2E7064C074DAA
:1005300006E0E06840F0010394E8070098471034B3
:10054000AC42F6D3FFF7F8FDACD80008CCD80008D1
:10055000202A04DB203A00FA02F100207047914083
:10056000C2F1200320FA03F319439040704770B59D
:100570008C1810F8015B15F0070301D110F8013B4E
:100580002A1106D110F8012B03E010F8016B01F8D5
:10059000016B5B1EF9D12B0705D40023521E0DD42D
:1005A00001F8013BFAE710F8013BCB1A921C03E07B
:1005B00013F8015B01F8015B521EF9D5A142D8D3B3
:1005C000002070BD10B509F09FFF002010BD00286D
:1005D00000DC40427047FEE77047704730B5B3F526
:1005E000804F05D06FF0704140F82210002030BDE0
:1005F0008C690B688D6823434C688989240144EA1F
:100600000524234343EA014150F82230014C2340A2
:100610001943E9E70000F0CF10B50A6850F822301E
:1006200023F0010340F822308C68082C23D00023EB
:100630004A682243CC681C430B6922431A434B6926
:100640000E4C1A43CB691A430B6A1A434B6A1A437E
:100650008B6A1A43CB6A1A430B6B1A438B69134399
:100660004A6B09681A4350F82130A343134340F8FA
:100670002130002010BD4023DAE700007FFF0F008B
:1006800030B5D1E9003443EA04138C688D89240223
:1006900044EA054423430C8A094D00EB820005EB34
:1006A000045423430C7D6D0105EB046489692343E5
:1006B0000B43416801F040410B434360002030BDD3
:1006C0000000F0FF1CB50024019401AC009400F080
:1006D000E7F81CBD2DE9FF4F83B0814606988A4696
:1006E000A0EB0A08109E00200090A2EB09043568D8
:1006F000934654EA080018D02046FFF768FF0746E3
:100700004046FFF764FF87420BDA204644468046A6
:100710004846D14682465846DDF818B0069001207A
:100720000090002C07DD204606E007B04846BDE8F3
:10073000F04F00F03BB96042A0420AD04846D9468B
:100740006442C8F1000883464FF0FF37DDF818A077
:1007500000E001275148B8F1000F11D004EBD4712B
:100760004FEA610B01DACBF1000B4C480068807E48
:1007700088B3002F02DA30682044306000257BE027
:1007800000990029016821D0897E11B10027804697
:1007900015E007B05A4649465046BDE8F04F02F012
:1007A0009FBC28466D1C07F0D3FC38B9D8F8000070
:1007B00009EB0701406E4268504690477F1CA742F4
:1007C000EFDD6D1E356007B0BDE8F08F8A7E1AB18F
:1007D0000027804617E019E0486E5A4651460368E4
:1007E00007B04846BDE8F04F184728466D1C07F093
:1007F000AFFC38B9D8F8001009EB0700496E4A6819
:10080000514690477F1CA742EFDDDAE700250FE055
:1008100008FB05B090FBF4F101EB0A00009951B11F
:100820001E4A09EB05011268526E526890476D1C12
:10083000A542EDDDC7E7194909EB05030968496ED3
:100840004A6801461846F1E708FB05B090FBF4F151
:1008500001EB0A00019030683844306007F078FC02
:1008600048B9009890B10D4809EB05010068406E49
:100870004268019890476D1CA542E5DD3068002F65
:1008800001DA20443060C01B30609CE7034909EB6B
:1008900005000968496E4A680199EBE7D00000201D
:1008A0002DE9FF470F4640491646804609680C98D7
:1008B0001D460A7E012A1CD0A8EB0600791B50EACF
:1008C00001031CD0A2F1010908F09EF900F5806037
:1008D000824601F057FA00FB09F4504601F056FA3F
:1008E00000FB09F1002C0CDAC4F5007080124042C4
:1008F0000AE00090324639464046FFF7EBFEBDE87D
:10090000FF8704F50074A012002904DAC1F5007114
:1009100089124C4202E001F500718C12002804DDBE
:10092000411C01EBD171491003E000EBD07149107B
:10093000401E00EBD0704210002C04DD601C00EB68
:10094000D070401003E004EBD4704010641E04EB40
:10095000D47308EB0104ADF800403C18ADF8024038
:10096000A8EB02045B10B21AADF80440ADF8082001
:100970003144FC1AEA1AADF80C102844ADF80A20EC
:10098000ADF80E000023ADF806401A460421684673
:1009900000F07AF83946404606F0BCFD294630465C
:1009A00006F0B8FDABE70000D0000020064A13684F
:1009B0001A7E012A05D0521E02EBD272521000F0AC
:1009C00005B85A6E52681047D00000202DE9F05F3C
:1009D0000646884640F2C32002FB00F14FF47A70CD
:1009E00091FBF0F702FB02F102EBD27001EB600B1E
:1009F0001446B118234A301B7F1C1268526E1368CC
:100A00000A4641469847012538E000BF05FB05F03E
:100A100004FB040159451CDDBC4219DD194B06EBF2
:100A2000050AA6EB05091B68AAF1010208EB0401FF
:100A30005B6E09F101001B689847124BAAF1010295
:100A4000A8EB04011B6809F101005B6E1B68984765
:100A5000641E0C4B3219301B1B68924608EB0501D3
:100A60005B6E81461B689847064B5246A8EB050112
:100A70001B6848465B6E1B6898476D1CBD42C5DD10
:100A8000BDE8F09FD00000202DE9FF4F43F6FF7432
:100A90000F46664283B09B46814600210BE000BFB3
:100AA00009EB8100B0F90200A04200DA0446B0422E
:100AB00000DD0646491CB942F2DB67480068406920
:100AC00000280DD0B0F906101A46A1EB0B01B14277
:100AD00000DA0E46B0F90200801AA04200DD04469A
:100AE000B4E0DFF878A100200546CAF8000088E0ED
:100AF000781E854201DA6B1C00E0002309EB850CAF
:100B000009EB8302BCF90200B2F90210A04244D101
:100B1000A14215D139F92330059A39F9251003EB93
:100B2000020C4D4A05981268084404EB0B01526E02
:100B30006045136801DA62462AE00246604627E013
:100B40002846A4464FF000087A1E0BE008B1401E6C
:100B500000E0781E09EB8003B3F90230634504D14D
:100B600008F101089045F1DB2346A34248D01A1B47
:100B700039F92500A1EB040C059B92EA0C0F09D46E
:100B8000354A184404EB0B011268526E1368024692
:100B9000984735E005F074FD32E0A14230D001DB2A
:100BA000A04203DDA0422BDBA14229DCE0468842C3
:100BB0000ADC0346A04223DC0846A14220DBB8F948
:100BC00000C0B2F9001008E00B46A14218DCA042B8
:100BD00016DBB2F900C0B8F90010E21AA1EB0C0163
:100BE00051430029A0EB030202DD01EB620102E0A8
:100BF000A1EB6201491CC01A91FBF0F06044C9E707
:100C00006D1CBD42FFF674AF0598009004EB0B001D
:100C1000019000208046054613E01149B8F1000F0D
:100C200031F915A009D0009901EB0A0208440A49DC
:100C30000968496E0B680199984788F00108504689
:100C40006D1C064909688D42E7DB641CB4427FF7DE
:100C500048AF07B0BDE8F08FD00000203C01002075
:100C600048B200202DE9F04FDFF828B191B04FF0E5
:100C7000FF35DBF80030B3F922100691DE69B3F9D5
:100C800024A0F469A189814206D8E289824203D373
:100C9000471AD4F8008012E0D4E90181002970D00D
:100CA0000A8882426DD84D8885426AD3801A82B202
:100CB000486800EB8200B0F90070B0F90250781C6F
:100CC0005FD0307EA27C014600FB02F9207CCDE99A
:100CD0000710B3F92A60304604F0DAFBC0B20E9078
:100CE000DBF8001007FB0980A37C8A6B0127CDE9A4
:100CF0000402CDE90273C869089AC17E807ECDE9FD
:100D00000001DDE90603514602F088F8681C18D09E
:100D100046F0020004F0BCFBDBF80000A37C05FBFE
:100D20000981826BCDE90273CDE90412C069089A8A
:100D3000C17E807ECDE90001DDE90603514602F067
:100D40006DF8DBF800005D46C069417E007E81429F
:100D500014D9022E12D086F0040004F099FB286802
:100D6000C069027EC37E857E02FB03A1437E089A92
:100D70000698534402FB050202F062FA0E9804F052
:100D800087FBDBF80000627C418C1144418411B088
:100D9000BDE8F08FD000002004480068C069C06939
:100DA00009B1027C0A60407C70470000D00000203E
:100DB000022008807047C06982898A4202D8C289AD
:100DC0008A4210D2806880B102888A420DD8438856
:100DD0008B420AD3406800EB8100A0EB8200B0F99F
:100DE0000000002801DB0120704700207047000050
:100DF0002DE9F0432F4C034687B020681946B0F91F
:100E00002A80C069C06900F082F800284ED041688D
:100E10000088181A01EBC0054046AE7804F038FB94
:100E2000814620686A680123816BCDE90236CDE9ED
:100E30000421C169CB7E8A7ECDE900230B7EB0F907
:100E400024102A78B0F9220001F0E8FF2068C06978
:100E5000477E067EB7421DD9C07E47434643B8F160
:100E6000020F17D000F0F6FA804600F0DBFA00F02F
:100E700035FC21682A78CB69B1F92200B1F9241038
:100E8000DB7E02FB0302CB19314402F0D9F9404664
:100E900000F024FC484604F0FBFA20686A78C36935
:100EA000B0F922109B7E02FB0311418407B0BDE81C
:100EB000F0830000D000002030B50E4C05460B46F4
:100EC00020682946C069C06900F021F8002810D0C8
:100ED0004168008824682A1A0120E46900EBC200F6
:100EE000085CA47E6043002B03D011F832106143EC
:100EF000196030BDD000002001200880704700B587
:100F0000C06900F004F8002800D0012000BD06E010
:100F100002888A4202D842888A4202D28068002827
:100F2000F6D17047002801D005F002BC704738B5F3
:100F30000546FFF7F7FF040009D000F093F82A46B2
:100F40000021009000F0DAFE684600F0A7F8204685
:100F500038BD0000024A106021F003005060704765
:100F6000BCB1002010B5002814D004460A48006B1C
:100F700010F8341000290DD002290BD2042101EB06
:100F8000C4014158486805F097FB2046BDE8104071
:100F900006F0F8BF10BD000000B10020002805D009
:100FA000034A916B016001B1486090637047000093
:100FB00000B100202DE9F041044606F0C5FE2848A6
:100FC000E41C24F00305C16B2D1DA94200D90D4678
:100FD000846B13E054F8042CAA420ED184B121682A
:100FE00009B162684A60616809B122680A60826B6F
:100FF000A24231D1216881632EE02468002CE9D11E
:101000008046416B80680F1857F8040C3E1A306810
:1010100038B1002006F0E4FF57F8040C3E1A30689F
:10102000D0B97068A84217DB3044441B3046241DF9
:1010300006F0BCFFD8F80810491BC8F80810D8F80B
:1010400010102944C8F810107068401B02D03146B7
:1010500005F032FB44F8045C2046BDE8F081000056
:1010600000B1002005498A69521C8A61096B01EBB5
:10107000C0010A78521C0A7000F028B800B10020A4
:101080000549102805D94A68B0EB520F02D3500821
:1010900000E0102088607047BCB100200A49026857
:1010A0000B6B52F8082C03EBC2021378022B03D30C
:1010B0008B690BB15B1E8B611178491E1170002189
:1010C000016008467047000000B10020002806D0EB
:1010D0000349042202EBC000096B0858083070472E
:1010E00000B1002010B5C2B2CBB2D21A00D5524224
:1010F00093B25B43C0F30722C1F30724121B00D550
:101100005242000C92B2A0EB114002FB023200B23C
:10111000002801DA404200B280B200FB002010BD7E
:1011200010B50021084600F0CDF943F6FF72504299
:10113000BDE8104013460146AFF300802DE9FC41A5
:1011400007461C4615460E46042004F0A1F98046C9
:101150001148C068C16C006D0F4406440D4404443E
:10116000ADF80070ADF80450ADF80260ADF806407F
:10117000684605F00FF907E023462A46314638460F
:1011800002F05EF805F0C8F80028F5D1404604F0FA
:101190007FF9BDE8FC810000C40000202DE9F0418A
:1011A0001C4616460D460746022B02DB0020BDE812
:1011B000F0811C20FFF7FEFE0028F8D00DB105617C
:1011C0000AE0094A52F8241009B905E011460A68F4
:1011D000002AFBD1096901618461868200210160D6
:1011E0004160C0E90217E2E7E800002070B51D4643
:1011F000FFF7D4FF040009D000F00EF8E0680068A3
:1012000020B90348006800EB85008465204670BD66
:10121000D0000020FFF7C2BE70B590B38269022AE9
:1012200030DA1E4C54F8221019B944F8220032E08A
:1012300019464B68002BFBD106E0CB68C5681B68DC
:101240002D68AB4203DD09680029F6D11AE0C1B16F
:10125000CB68C6681B683668B3420CD1838A012B01
:1012600005D008E01946DB681B68AB4203DB0B685E
:10127000002BF7D129B14B6833B118604A6842603E
:1012800004E0FFE7012070BD44F822004860884276
:1012900000D100210160002070BD0000E8000020A6
:1012A00007F096B8022801DB00207047054951F885
:1012B000200004E0C16809680029F6D00068002811
:1012C000F8D17047E80000202DE9FC4706005BD00C
:1012D00000F0C8F83B4C81462068B0F9228000F04D
:1012E000C9F8216807468A8CD01B888441E000BF7A
:1012F00047F6FF71304600F01FFC8246014630463B
:1013000000F0F0FB2168054691F82C0000F0030086
:1013100001283FD0022839D000204A8C101A488476
:10132000ADF800006A1E1044ADF80400888CADF8DA
:101330000200A9F101010844ADF806006A465146D1
:10134000304600F077FB2168BDF8020088845146E2
:10135000304600F073FA064430780A281CD00D2875
:101360001AD0BDF80000216828444884307818B1AC
:10137000761C30780028BBD12068818C3944818468
:10138000818D21F003018185BDE8FC8705EBD570D7
:101390004010C2E72846C0E7206890F82C1001F002
:1013A000030101290BD0022909D0018C4184317835
:1013B0000A29DBD1828C02EB09018184D6E7A0F8EF
:1013C0002280F4E7D0000020024B1B6859849A84E5
:1013D000FFF77ABFD00000202DE9F0410B4C2568C3
:1013E000EC6C2718286DA5184618C418002004F0C6
:1013F000D1FF07E023462A4631463846FFF762F917
:1014000004F08AFF0028F5D1BDE8F081D00000206B
:10141000034951F82000C1688A6A0821104700007A
:10142000E800002010B501F03BFFBDE8104001F0DE
:101430009FBF000002490968C9694A680021104736
:10144000D0000020024A1268D2695268104700009A
:10145000D000002010B501F02BFFBDE8104001F0D6
:1014600087BF000002480068C069407E70470000E6
:10147000D00000200A490020096891F82C2002F0D1
:101480000C02042A07D0082A01D00C2A02D1C8690C
:10149000007E40087047C869007E401E704700000B
:1014A000D0000020024951F8200000690068704710
:1014B000E8000020024951F82000006940687047A8
:1014C000E800002070B50D4606F098FB044628465B
:1014D00006F09CFB204370BD124810B5016821F056
:1014E000010101601048012181601049016000681C
:1014F0000F49884200D0FEE700F082FA0D492E2005
:10150000087000F0EAF90C4806F0D0FB07F088FEFE
:1015100004460021084600F0F3F804F077FD204669
:1015200010BD0000002000E000300240C2A507F41A
:10153000CDB5E8B5C4000020C8B1002038B504001E
:1015400018D00D480068006EA04201D100F0A8F844
:101550002046FFF787FD0090406908B100F096F93A
:1015600000980068FFF756FE6846FFF797FD204693
:10157000FFF7F8FC38BD0000D000002038B500248B
:1015800060B1FFF76FFD00900068006980688047D8
:1015900004F07EF904466846FFF780FD204638BD1A
:1015A00038B5FFF75FFD00F1180400906846FFF7BB
:1015B00075FD204638BDF8B515460E460746FFF7BF
:1015C00051FD009044696846FFF768FD3846FFF713
:1015D000D5FF0346082800DD2CB12A46314638469F
:1015E00006F016FFF8BD2A463146384607F0B0F837
:1015F000F8BD10B5002821D009B30AB3B1F90040F5
:10160000B2F900309C4200DA23460380B1F902406F
:10161000B2F902309C4200DA23464380B1F904401B
:10162000B2F904309C4200DD23468380B1F90610F4
:10163000B2F90620914200DC1146C18010BD11466E
:101640000A6802604968416010BD00280BD0038819
:101650000B44038083881944818041881144418070
:10166000C1881144C1807047B0F90220B1F9063039
:101670009A4213DCB1F90220B0F906309A420DDC2F
:10168000B0F90020B1F904309A4207DCB1F900103A
:10169000B0F90400814201DC01207047002070474E
:1016A00010B503F017FE03F03BFFBDE8104004F057
:1016B00083BB000070B504460548022C0068457CD9
:1016C00002D24474FFF7ECFF02480460284670BD64
:1016D000D00000205C01002003F01CBE03F052BECD
:1016E0000149886070470000C40000200349096870
:1016F000CA6900B1C861104670470000D0000020E0
:10170000094A30B41080094A1180094A1268537C92
:10171000084A52F82330DA68146A0A46A446014699
:1017200030BC184660470000F8000020FA00002096
:10173000D0000020E800002002480068002800D007
:1017400000477047D401002002498A6802B98860C6
:10175000FFF7F2BFC80100202DE9F84FDFF89880AD
:101760000546264F98F818008B46410738680A9EB0
:101770009946407C924607D401F0CEFD0446386875
:10178000407C01F0CCFD06E001F0C9FD044638685C
:10179000407C01F0C1FD002785B1441EB9EB060075
:1017A00000D54042142806DB5146BBEB0A0000D5A9
:1017B0004042142804DA0120BDE8F88F641EEDE7EA
:1017C0000A464B4659463846009606F051FB0C4FE8
:1017D0004B46524647F8350059462046009606F0DB
:1017E00047FB07EBC501486006F0EEFC0121002035
:1017F000C8F81C10E0E70000FC000020D00000202A
:1018000038B200200149886170470000FC000020C8
:101810002DE9F041084E0446056830680168284605
:101820008847074630684168284688472844206032
:101830003846BDE8F0810000D40000202DE9F041D9
:101840000C4606460025064F05E0386841683046DC
:10185000884706440544641EF7D22846BDE8F08157
:10186000D40000202DE9F0411E46069C174688460C
:1018700005463A46A8687F1C3346D0F804C0414666
:101880002846E047641EF4D1BDE8F08138B505462E
:10189000FFF7E8FB00908189491E0CB284816846FD
:1018A000FFF7FCFB002C02D12846FFF75BFB38BD9D
:1018B00010B54FF4F0442146002007F011FE2146F8
:1018C000FFF748FB8020FFF7DBFBBDE81040014835
:1018D000FFF706BF3CAE00087047704710B5082AF6
:1018E0000EDC0346012A18D0022A56D0042A76D0EC
:1018F00010F8042B03F8012B491EF9D1012010BD6B
:10190000102A08DC4FEA000230F8043B22F8023BC0
:10191000491EF9D1F2E7002010BD10F8042BD207C0
:10192000120E491E34D010F8044B491E04F0010475
:1019300042EA84122CD010F8044B491E04F0010432
:1019400042EA441224D010F8044B491E04F001046A
:1019500042EA04121CD010F8044B491E04F00104A2
:1019600042EAC40214D010F8044B491E04F00104EA
:1019700042EA84020CD010F8044B491E04F0010422
:1019800042EA440204D010F8044B04F0010422435C
:1019900003F8012B0029C0D1B0E710F8042B9207FF
:1019A000120E491E15D010F8044B491E04F0030412
:1019B00042EA04120DD010F8044B491E04F003044F
:1019C00042EA840205D010F8044B04F003042243D9
:1019D000491E03F8012B0029DFD18FE7FFE710F83C
:1019E000042B1207120E491E05D010F8044B04F008
:1019F0000F042243491E03F8012B0029EFD17DE794
:101A00000A4810B5816900290ED101218161FFF7D3
:101A10004FFF03F0A9FD054905481C310860BDE8EA
:101A20001040084600F062B910BD0000C40000205C
:101A3000D17E00087CB5064628480D46006868B18E
:101A4000002004F0A7FC06E06A462946304604F070
:101A50007FFF04F061FC0028F6D17CBD1068009087
:101A60001F4C506801902268BDF8000032F84C1FEE
:101A70000844ADF80000BDF8020091880844ADF8B4
:101A80000200BDF8040011880844ADF80400BDF858
:101A9000060091880844ADF80600684604F07AFC18
:101AA0000EE000BF2068BDF800106A464184BDF812
:101AB000021081842946304604F04AFF04F02CFCD1
:101AC0000028EFD1206830F8221F428D891A01804A
:101AD0004188C28D891A41807CBD0000F40000203D
:101AE000D000002073B5124A01A9009812689047EF
:101AF00000240090C8B10F4900250968C9694969E7
:101B000059B10A684AB1019990477CBD6846FFF710
:101B10007FFE0546FFF78EFC04440198401E0190AD
:101B2000F4D5284600F024F8044420467CBD00008B
:101B300038010020D000002073B50D460098002425
:101B400090B10A490968C969496959B14A684AB1F5
:101B5000294690477CBD6846FFF75AFE20B10A2807
:101B600002D0641CAC42F6DB20467CBDD0000020D5
:101B700038B5002469460094FFF764FC009981425F
:101B800000DD0C1A204638BDB0F90030B1F9002054
:101B9000934200DA0280B0F90230B1F90220934298
:101BA00000DA4280B0F90430B1F90420934200DD3C
:101BB0008280B0F90620B1F906108A4200DDC180AA
:101BC000704770B5B1F90040B2F900309C4200DDB9
:101BD00023460380B1F90250B2F90240A54200DD6C
:101BE0002C464480B1F90460B2F90450AE4200DAE8
:101BF00035468580B1F90610B2F90620914200DB26
:101C00001146C1809D4201DBA14201DA002070BD76
:101C1000012070BD014602480068407C00F002B817
:101C2000D00000202DE9F843012604468946022809
:101C300057DADFF8B480080008F1040530D0012835
:101C400002D002294DD116E055F8240088B920466B
:101C5000FFF728FB009010B3C0680D21426A684668
:101C6000904702003DD049460098904755F824001F
:101C70000026401C33E02046FFF714FB009070B1B3
:101C8000C0680D21426A68469047040029D0D8F800
:101C9000000000B1804749460098A047002620E098
:101CA00055F82400012813D12046FFF7FBFA0090D5
:101CB00070B1C0680D21426A68469047070007D09E
:101CC000D8F8000000B1804749460098B847002680
:101CD00055F8240008B1012100E00021401A45F820
:101CE00024003046BDE8F883B401002002494A6967
:101CF0004260486170470000C400002010B502E057
:101D000000F8011B521E0AB18307F9D1930818D0BD
:101D100001EB014402F0030204EB042406E010C0CE
:101D20001B1F10C040F8084B40F8044C042BF6DA97
:101D300001E010C05B1E002BFBD102E000F8011B8C
:101D4000521E002AFAD110BD10B5830702D520F823
:101D5000021B521E530811D001EB0144042B09DB76
:101D600010C01B1F10C0042B40F8084B40F8044C57
:101D7000F6DA01E010C05B1E002BFBD1D20700D0C9
:101D8000018010BD00F58060AFF3008010B5002326
:101D9000C0F30B00B0F5006F02DD0123A0F5006079
:101DA000B0F5806F01DDC0F5006081110C4C00F0D2
:101DB0003F00C0F1400234F811005043402A08D0DF
:101DC000102906DA04EB4101C2F14002498801FB07
:101DD000020020308009002B00D0404210BD0000DE
:101DE000ECA6000810B5040002D0607910B106E03E
:101DF000012010BD00202071204600F005F80120D0
:101E00006071002010BD000008B5006806498842D6
:101E100008D10648416941F040014161406900F044
:101E20004000009008BD0000003002400010024059
:101E300070B5044600F0E8F90546601C02D004487D
:101E40000078044400F0E0F9401BA042FAD370BDD2
:101E50002C00002030B585B0002000900190029049
:101E6000039017480168002927D101210160154816
:101E7000416941F4807141614069022400F480703D
:101E8000049041F20100CDE9000403256946039561
:101E90000D4800F0AFF84FF68070CDE900046946B8
:101EA00003950A4800F0A6F84CF23370CDE900041F
:101EB00069460395064800F09DF805B030BD000066
:101EC00024000020001002400020014000180140C2
:101ED000001401402DE9F04300233E4F0F2574E02C
:101EE00001229A400A406ED023F00304E619D6F886
:101EF00008809C074FEA147C05FA0CF909EA0804EB
:101F0000DFF8D480404502D14FF0000824E0DFF82C
:101F1000CC80404502D14FF001081DE0DFF8C080C1
:101F2000404502D14FF0020816E0DFF8B880404586
:101F300002D14FF003080FE0DFF8AC80404502D13A
:101F40004FF0040808E0DFF8A480404502D14FF0CC
:101F5000050801E04FF0060808FA0CF8A04515D175
:101F6000D6F808C02CEA090CC6F808C0204E346820
:101F700094433460341D266896432660241D2668E9
:101F800096432660241D266896432660FF2A01D8C2
:101F9000064601E000F104064FEA830401D9A4F1EA
:101FA0002004D6F800C005FA04F82CEA080C4FF01B
:101FB000040808FA04F84CEA080CC6F800C0C46823
:101FC00024EA0204C46003F1010331FA03F287D169
:101FD000BDE8F0830000014000080140000C014012
:101FE000001001400014014000180140001C014095
:101FF000000401402DE9F84FDFF8C891002409F1F1
:10200000040A0AF1040B23460F270BF1040ED1E05A
:102010000125A54006EA0502AA4276D1DFF8A8C14B
:102020004E68A6EB0C0866452BD00DDC032E34D091
:1020300005DC36B3012E19D0022E2FD11BE0112E54
:1020400016D0122E2AD119E0B8F5881F19D006DC57
:10205000B8F5803F15D0B8F5801F1FD111E0B8F555
:10206000001F0ED0B8F5041F18D10AE0CB6815E0A8
:10207000CB681B1D12E0CB6808330FE0CB680C3334
:102080000CE08B682BB1012B4FF0080303D04561A6
:1020900004E0042302E0056100E00023FF2A01D8E8
:1020A000064601E000F104064FEA840501D9A5F1D6
:1020B0002005D6F8008007FA05FC28EA0C0803FA88
:1020C00005F548EA0508C6F800804D68ED0070D5B2
:1020D0003E4DAE6946F00106AE61AD6924F00306DF
:1020E00005F0010500953A4D06EB050CDCF80850AB
:1020F000A607360F07FA06F825EA0805DFF8D480A8
:10210000404503D14FF0000825E052E0DFF8C880D9
:10211000404502D14FF001081DE0DFF8C080404586
:1021200002D14FF0020816E0DFF8B480404502D13A
:102130004FF003080FE0DFF8AC80404502D14FF0CC
:10214000040808E0DFF8A080404502D14FF0050800
:1021500001E04FF0060808FA06F848EA0508CCF84E
:1021600008804D68D9F80060ED034D4601D516434F
:1021700000E096432E604D68DAF80060AD035546E6
:1021800001D5164300E096432E604D68DBF80060F1
:10219000ED025D4601D5164300E096432E604D6882
:1021A000DEF80060AD02754601D5164300E09643A7
:1021B0002E60641C0A681646E2407FF429AFBDE831
:1021C000F88F0000000401400000111000100240D0
:1021D0000000014000080140000C014000100140D7
:1021E0000014014000180140001C0140C26821EAAF
:1021F00002030A4043EA0241016170470AB10161EA
:1022000070470904FBE70000014880687047000040
:102210002C000020024881680278114481607047D8
:102220002C000020074810B5016841F01001016042
:10223000032000F067F8002000F006F800F024F812
:10224000002010BD0020024070B50D4D04464FF433
:102250007A712878B1FBF0F00A490968B1FBF0F017
:1022600000F012FB48B9102C07D200222146501E64
:1022700000F028F800206C6070BD012070BD0000E7
:102280002C000020380000200C4808B5816941F07E
:1022900001018161816901F001010091C16941F091
:1022A0008051C161C06900F08050009004484168CD
:1022B00021F0E06141F00071416008BD0010024072
:1022C00000000140F0B40E4B1B680C46C3F3022320
:1022D000C3F10705042D00D90425191D072901D2D2
:1022E000002300E0DB1E012606FA05F1491E21400D
:1022F00099409E40761E16403143F0BC06F042BC29
:102300000CED00E0064900F0070208684FF6FF03F5
:10231000184040EA0220034A10430860704700005A
:102320000CED00E00000FA052DE9F0470F4605002E
:1023300061D0434E306800F00700B84209D23068DF
:1023400020F0070038433060306800F00700B842E2
:1023500051D128683B4C810712D5400703D56068EE
:1023600040F4E06060602878000703D5606840F4BE
:10237000605060606068A96820F0F0000843606009
:102380002878C00728D06868012810D02168022862
:1023900010D0890700292EDA616821F0030101437A
:1023A0006160FFF731FF804641F288390DE0216816
:1023B0008903EFE78901EDE7FFF726FFA0EB0801AE
:1023C000494502D90320BDE8F0876068696800F0DC
:1023D0000C00B0EB810FEFD1306800F00700B8427D
:1023E0000BD9306820F0070038433060306800F0C7
:1023F0000700B84201D00120E5E72878400705D55D
:102400006068E96820F4E0600843606028780007AD
:1024100006D56068296920F4605040EAC100606018
:1024200000F038F86168084AC1F30311515CC840F4
:102430000649086006480068FFF706FF0020C2E76B
:10244000002002400010024074A50008380000205F
:10245000300000200448054900684968044AC1F377
:102460000221515CC8407047380000200010024033
:1024700084A500080448054900684968044AC1F376
:10248000C221515CC8407047380000200010024053
:1024900084A5000812A185B00FC98DE80F0014A013
:1024A000144A006804905168134801F00C03042B8F
:1024B00010D0082B0ED1C1F38343C9031DF80300CC
:1024C0000AD5516804AAC1F34041515C0A4A5043FD
:1024D000B0FBF1F005B0704708494843FAE7000047
:1024E00002030405060708090A0B0C0D0E0F101055
:1024F000010200000010024000127A0000093D00B5
:102500002DE9F84F040070D02078C04DC00749D0A5
:102510006868C0F38100012807D06868C0F38100B3
:10252000022809D16868C00306D52868800339D518
:1025300060680028E7D035E06068B0F5803F0BD0D8
:1025400010B1B0F5A02F11D0286820F48030286099
:10255000286820F4802002E0286840F48030286059
:10256000606890B1FFF750FE06460AE0286840F424
:1025700080202860F0E700BFFFF746FE801B64283C
:1025800073D828688003F7D50CE0FFF73DFE0646B8
:1025900005E000BFFFF738FE801B6428F0D82868EC
:1025A0008003F7D420789A4E80074FF001094FF04E
:1025B000000839D5686810F00C0F07D06868C0F3C0
:1025C0008100022809D16868C00306D42868800702
:1025D00014D52069012808D110E02069B0B1C6F8EF
:1025E0000090FFF711FE074605E00AE1FFF70CFE39
:1025F000C01B0228C4D828688007F7D528686169FD
:1026000020F0F80040EAC10028600DE0C6F8008024
:10261000FFF7FAFD074604E0FFF7F6FDC01B0228AE
:1026200023D828688007F7D4207800072CD579486C
:10263000A169D9B1C0F80090FFF7E6FD074604E0B4
:10264000FFF7E2FDC01B02280FD8686A8007F7D5A4
:1026500071484FF4FA510068B0FBF1F0009000BFF0
:102660000098411E0091FAD20EE080E0C0F8008090
:10267000FFF7CAFD074604E0FFF7C6FDC01B0228AE
:1026800075D8686A8007F7D42078400760D5E86974
:102690000027C00008D4E86940F08050E861E8698C
:1026A000012700F0805000905C480168C90513D4F0
:1026B0000168834641F480710160FFF7A5FD824601
:1026C00006E000BFFFF7A0FDA0EB0A0064284ED88B
:1026D000DBF80000C005F5D5E06801280AD008B194
:1026E000052813D0286A20F001002862286A20F00B
:1026F000040002E0286A40F001002862E06841F22C
:10270000883B98B1FFF780FD82460BE0286A40F0D5
:1027100004002862EEE700BFFFF776FDA0EB0A0198
:1027200059455AD8286A8007F6D50CE0FFF76CFDAA
:10273000824605E0FFF768FDA0EB0A0159454CD839
:10274000286A8007F6D41FB1E86920F08050E8615C
:10275000E06988B36968C1F38101022944D0022885
:10276000C6F8608004D0FFF74FFD044638E034E03F
:10277000FFF74AFD074604E0FFF746FDC01B0228AD
:102780002BD828688001F7D4206AB0F5803F05D1A6
:102790006868A16820F4003008436860D4E9080143
:1027A0000843696821F4741108436860C6F86090B2
:1027B000FFF72AFD044606E025E000BFFFF724FDF1
:1027C000001B022809D828688001F7D51BE000BF4C
:1027D000FFF71AFD001B022802D90320BDE8F88F7D
:1027E00028688001F4D40EE00128F7D06868226AD6
:1027F00000F48031914204D1616A00F47010884283
:1028000001D00120EAE70020E8E7000000100240C4
:102810000000424280044242380000200070004024
:1028200070B515460E46040007D0A069B0F5807F4C
:1028300003D094F8410010B107E0012070BD0020E2
:1028400084F84000204600F01DF804F108012068DB
:10285000FDF7E2FE3146A2682068FDF711FFD4E9DA
:1028600001022946236BFDF7B9FEA168206850F8E4
:10287000212042F0010240F82120012084F841008B
:10288000002070BDFFF7E6BA10B5401EB0F1807FA2
:1028900001D3012010BD4FF0E02460610F216017CB
:1028A00006F070F90020A06107202061002010BD13
:1028B00070B590F83C20012A2CD0012480F83C40CF
:1028C000022280F83D2003685A689D6822F0700655
:1028D0000A6832435A60104B02689A420ED00F4B7E
:1028E0009A420BD0B2F1804F08D00D4B9A4205D0DE
:1028F0000C4B9A4202D00C4B9A4204D1496825F005
:1029000080031943916080F83D40002180F83C101D
:10291000084670BD022070BD002C0140003401400B
:102920000004004000080040000C004010B5040006
:1029300003D094F83D0010B107E0012010BD002045
:1029400084F83C00204600F01FF8022084F83D0087
:10295000211D206803F024F9012084F8460084F842
:102960003E0084F83F0084F8400084F8410084F879
:10297000420084F8430084F8440084F8450084F859
:102980003D00002010BD000008B5006806498842DF
:1029900008D10648816941F400518161806900F4E1
:1029A0000050009008BD00000034014000100240BB
:1029B00090F83D10012901D001207047022180F8D4
:1029C0003D1000680E4988420ED00E4988420BD057
:1029D000B0F1804F08D00C49884205D00B4988429D
:1029E00002D00B49884204D1816801F00701062911
:1029F00003D0016841F00101016000207047000030
:102A0000002C014000340140000400400008004058
:102A1000000C004001680A6A41F211131A4207D102
:102A20000A6A9B101A4203D10A6822F001020A6066
:102A3000012180F83D100020704770B5044690F8E1
:102A40003C00012817D0012584F83C50022084F86E
:102A50003D002068826822F0770222F47F42826083
:102A60000868502830D00DDC20284DD005DC98B304
:102A700010283BD148E0022070BD302844D04028C7
:102A800034D139E0602828D0702806D0B0F5805FB6
:102A90002CD0B0F5005F29D10AE0CB68D1E9012143
:102AA000206803F0C3F82068816841F0770109E0ED
:102AB000CB68D1E90121206803F0B8F8206881686B
:102AC00041F48041816011E0CA684968206803F0E0
:102AD000BFF85021206807E016E0CA6849682068FE
:102AE00003F0C7F86021206803F0AAF884F83D508D
:102AF000002084F83C0070BDCA684968206803F073
:102B0000A7F840212068EFE7226801461046EBE76E
:102B100010B5040013D0242084F839002068C1685F
:102B200021F40051C160204600F03CF80020E06331
:102B300084F8390084F83A0084F8380010BD012088
:102B400010BD70B5040004D094F83900002510B110
:102B500006E0012070BD84F83850204600F038F8B7
:102B6000242084F839002068C16821F40051C16034
:102B7000204603F091F82068016921F49041016139
:102B80002068416921F02A0141612068C16841F44F
:102B90000051C160E563202084F8390084F83A00D0
:102BA000002070BD00680749884209D10648816944
:102BB00021F4804181614FF4C0610448FFF78AB974
:102BC000704700000038014000100240000801403A
:102BD00030B585B0002400940194029403940068F9
:102BE0001449884224D11448816941F480418161AB
:102BF000816901F480410491816941F0040181619E
:102C000080690E4D00F0040004904FF400700090B5
:102C1000022001900320039069462846FFF7EAF955
:102C20002815CDE90004694628460294FFF7E2F929
:102C300005B030BD003801400010024000080140DE
:102C40002DE9F843044690F839001F4616460D4614
:102C500020284CD1C5B1BEB194F83800012846D027
:102C6000012084F838004FF00008C4F83C8021208F
:102C700084F83900FFF7C8FAA6848146E684A06884
:102C8000B0F5805F03D004E00120BDE8F88320693F
:102C900028B12E465FF0000584F838800EE000264B
:102CA000FAE78021204603F053F8A0B9AEB116F838
:102CB000010B21684860E08C401EE084E08C4B46AC
:102CC0004FF0000200970028EBD14FF04001204662
:102CD00003F03EF830B10320D7E735F8020BC0F31C
:102CE0000800E6E7202084F839000020CDE7022024
:102CF000CBE7000070B50A490646002408884D88D5
:102D000021464543204602F04FFB02F01BFCB0B2C7
:102D1000044901E00880641CAC42FBD370BD000094
:102D20002C0200200008006C0449054A0968497C0F
:102D300052F821100969096808470000D0000020F6
:102D4000E80000202DE9F04F33492C240A46887111
:102D50002A2592882B2645F2105B4FF4305E4FF403
:102D600048774FF0F00949F2413A4FF4A07845F224
:102D7000103C4FF4F07358B1A1F80080A1F8029014
:102D8000524501D0624529D10C814D818E8139E0B7
:102D9000A1F80090A1F80280524501D0624508D107
:102DA0000C814D818E81624531D1A1F800804B802C
:102DB0002DE05A4508D1A1F808E04FF42850488189
:102DC0004FF42C50888106E0A2F5C85063381ED11C
:102DD0000C814E818D810B804F8018E05A4508D1BF
:102DE000A1F808E04FF4285048814FF42C50888116
:102DF00006E0A2F5C850633804D10C814D818E8164
:102E00000F804B80624502D10B80A1F80280BDE8A3
:102E1000F04F002002F0B2B92C0200202DE9F04F53
:102E200005468DB07B48DDF860901A9C00681E4610
:102E300017464FF0000A78B11B9B199ACDF80890FD
:102E40000593CDE90324DDE91623CDE900230468C9
:102E500033463A46284680E0DDE9160201EB0608D3
:102E600005EB070C1043A8F10108ACF1010C012897
:102E700006D0C9F108000590002002910990C6E033
:102E800065480268B2F90A30581A002806DD361A79
:102E9000002E63DD1946199B00FB0344B2F90E00B6
:102EA000A8EB0000002802DD361A002E56DDB2F92C
:102EB0000C00ACEB0000002800DD3F1AB2F908302E
:102EC0000020AB4235DD581B3F1A4B46B9F1080FC5
:102ED00026D006DC012B0BD0022B11D0042B28D1DD
:102EE00016E0102B1ED0182B1FD0202B21D11CE058
:102EF00020F0070304EBE0041D4400F0070018E095
:102F000020F0030304EBA0041D4400F0030010E0D4
:102F100020F0010304EB60041D4400F0010008E010
:102F2000044404E004EB400401E004EB80040544A5
:102F30000020002F12DD1B9BDDF864C0CDE90403E7
:102F4000CDE90069CDE902C4527C34483B4650F8D3
:102F50002200C26854680A462946A0470DB0BDE861
:102F6000F08F1799029808440C902B49401E00904E
:102F70000A68B2F90A30834241DCB2F90E100298B5
:102F800081423CDB4FF0000BD84603950A9434E0B5
:102F9000BBF1000F05D10A984FF0080B10F801ABF8
:102FA0000A900599ABEB090B3AFA01F00AFA09F11C
:102FB00001F0FF0A04D118490968097C890716D471
:102FC00015490968C96B0A680B921B9A0AB152F835
:102FD0002000086016990398009B4218521E02991F
:102FE00000F02EF90C490B980968C96B0860039929
:102FF000169808F1010808440390B845C8DB099801
:10300000401C09900C980290199804440998B04209
:10301000A7DBA3E7F4000020D0000020E800002098
:10302000F0B40C4612490968B1F90A30A3421CDC1D
:10303000B1F90E30A34218DBB1F90830834200DD4C
:103040001846B1F90C30934200DA1A4682420CDB82
:103050004B7C084951F8235013462246E9688E6894
:1030600001462846B446F0BC6047F0BC70470000FB
:10307000D0000020E80000200A46174930B4096853
:10308000B1F90A30934225DCB1F90E30934221DBCD
:10309000B1F9083083421DDCB1F90C30834219DBF1
:1030A0000B7C0E4CDB0709D0497C54F82130D968E1
:1030B000CC690146A44630BC18466047CB6B497CBE
:1030C0001B6854F82140E1688D6901462046AC46F2
:1030D00030BC604730BC7047D0000020E8000020C2
:1030E000124B30B41B68B3F9084084421CDCB3F9BE
:1030F0000C40844218DBB3F90A408C4200DD2146C3
:10310000B3F90E40944200DA22468A420CDB5C7C22
:10311000074B53F82440E368DD6813460A4601462E
:103120002046AC4630BC604730BC7047D000002021
:10313000E80000202DE9F047DFF8B490DFF8B48014
:103140004B46B9F804609C8992460D0A070A5B89D0
:10315000A6F5134C08F10202BCF1410C10D0A6F503
:10316000A04CBCF5447C0BD0A6F5A04CBCF5A26CE1
:103170000ED0A6F5C85C4F46BCF1630C17D02EE00C
:10318000A8F800301780C0B21080A8F8004023E0F3
:10319000A8F8003017805B1CA8F80030C0B210807F
:1031A000A8F800401580641CA8F8004015E0BE791E
:1031B00026B9B9F80060301A401E80B2A8F8003075
:1031C000030A1380C6B216801380C0B21080A8F81C
:1031D00000401580C8B210801580C8B21080B9F8C0
:1031E0000800A8F80000A2F800A0BDE8F0870000E1
:1031F0002C020020FE07006C2DE9F0438146A2EB73
:1032000009020798521C1F4695B20C4686B2DFF899
:103210002C800FE02146484602F0C6F802F092F9F1
:103220000020414602E00E80401C80B2A842FAD342
:10323000641CA4B2BC42EDD9BDE8F0830008006C68
:1032400038B5134C2468B4F90850854200DD28468F
:10325000B4F90C50954200DA2A46824217DBB4F9E1
:103260000A508D4200DD2946B4F90E509D4200DA25
:103270002B468B420BDB0093647C064B53F82440B7
:10328000E3681D6913460A4601462046A84738BD33
:10329000D0000020E8000020082104F031BC00002C
:1032A00002480068806B006870470000D000002072
:1032B00002480068C06B006870470000D000002022
:1032C000024809210068407C04F01ABCD0000020AC
:1032D000092104F015BC70B500252C462046FDF7E9
:1032E000E1FF00B16D1C641C022CF7DB284670BDA9
:1032F00002480068407C00F003B80000D0000020C5
:1033000010B5FDF7CFFF002805D0C168CA6ABDE837
:1033100010400221104710BD012104F0F1BB022131
:1033200004F0EEBBAFF300802DE9F041002809D096
:10333000876837B10D4E716819B10468B4F5807FA4
:1033400002DD0020BDE8F0813068844200DD0446E3
:10335000002507E057F82500FFF7E6FC716841F803
:1033600025006D1CA542F5DB7068EBE744010020E9
:103370000449054A0968497C52F8211009694968DD
:1033800008470000D0000020E800002010B500F041
:103390001F01074A074BC0F34514C0F3C4201B5D4F
:1033A000105C515C00EB032000EB014010BD0000FD
:1033B00078C2000898C200082DE9F04FFE4895B089
:1033C0008069FD4940F0080088618869032400F0A5
:1033D000080000900120CDE912041090119010A96E
:1033E000F648FEF707FEF6484FF0204BF549062257
:1033F000C0F800B0C0E9011200211023C160C0E98B
:10340000041381611B02C161C0E909139B00C0E97B
:103410000B13416381631A20CDE90A100F910992C1
:1034200002940591CDE90312089102AA09A9E44882
:10343000FFF7F6F93220FEF7FBFCE34DD32028809E
:10344000AC1C2088DE4E2088483620884FF6FF715D
:1034500001EA0021208849F241380843B08045F252
:10346000103945F2105741F6631A40452FD0D42049
:1034700028802088208821884FF6FF7000EA0122EA
:1034800021881143B180494521D04FF45A41298008
:1034900021884FF45B41298021884FF45C4200EA87
:1034A00001212A8022880A43B280B2F5004F7DD0E4
:1034B000BA420CD0A12129802188218800EA01216B
:1034C00020880843A0F5AE41B08061396FD0B08844
:1034D00040456DD1CF20288000202080C120208051
:1034E00030202080ED202880642020800320208050
:1034F0001220208081202080E820288085202080C4
:10350000102020807A202080CB2028803920208025
:103510002C20208000202080342020800220208049
:10352000F720288020202080EA202880002020808A
:103530002080C02028801B202080C12028800120DE
:103540002080C5202880302020802080C72028802F
:10355000B720208036202880482020803A202880EC
:1035600055202080B1202880002020801A20208033
:10357000B62028800A202080A2202080F2202880E7
:10358000002020802620288001202080E020288024
:103590000F2020802A2020802820208008202080C2
:1035A0000E20208008202080542002E04BE046E0DE
:1035B0004BE02080A9202080432020800A2020800A
:1035C0000F20208000202080208020802080E1208B
:1035D00028800020208015202080172020800720B0
:1035E000208011202080062020802B202080562043
:1035F00020803C20208005202080102020800F206B
:1036000020803F20208020800F2020802B202880B9
:10361000002020802080012020803F2020802A2040
:1036200028800020208020802080EF202080112012
:1036300028807820FEF7FCFB292001F03CBCA6F88E
:1036400004A001F03CBCB780FEE348457ED1ED20EC
:10365000288001202080FE202080EE202880DE208F
:10366000208021202080F120288001202080DF2060
:10367000288010202080C42028808F202080C62011
:10368000288000202080E220208020802080BF2011
:103690002880AA202080B02028800D2020800020B3
:1036A00020800D20208000202080112020800020FC
:1036B00020801920208000202080212020800020D0
:1036C00020802D202080002020803D202080002090
:1036D00020805D202080002020805D202080002030
:1036E0002080B120288080202080002020808B2016
:1036F0002080002020809620208000202080B22082
:10370000288000202080208002202080002020802F
:103710000320208000202080B320288000202080EB
:103720002080208020802080208020802080208099
:103730002080208020802080208020802080208089
:103740002080208020802080208000E0FEE32080F8
:103750002080B42028808B2020800020208096208C
:10376000208000202080A120208000202080B52003
:10377000288002202080002020800320208000203C
:1037800020800420208000202080B6202880002077
:1037900020802080B72028800020208020803F20AB
:1037A0002080002020805E20208000202080642057
:1037B00020800020208009E000100240000C014021
:1037C000E4010020040100A0FE07006C8C20208092
:1037D00000202080AC20208000202080DC20208061
:1037E00000202080702020800020208090202080D9
:1037F00000202080EB20208000202080DC20208002
:1038000000202080B8202880002020802080208078
:1038100020802080208020802080BA2028802420C2
:1038200020800020208020802080C120288020202F
:103830002080002020805420208000202080FF2035
:10384000208000202080C22028800A2020800020A4
:1038500020800420208000202080C32028803C205D
:103860002080002020803A202080002020803920E5
:1038700020800020208037202080002020803C20D5
:1038800020800020208036202080002020803220D0
:103890002080002020802F202080002020802C20CD
:1038A00020800020208029202080002020802620C9
:1038B00020800020208024202080002020802420C0
:1038C00020800020208023202080002020803C2099
:1038D0002080002020803620208000202080322080
:1038E0002080002020802F202080002020802C207D
:1038F0002080002020802920208000202080262079
:10390000208000202080242020800020208024206F
:103910002080002020802320208000202080C420C0
:103920002880622020800020208005202080002028
:1039300020808420208000202080F0202080002013
:1039400020801820208000202080A42020800020BB
:1039500020801820208000202080502020800020FF
:1039600020800C2020800020208017202080002034
:1039700020809520208000202080F32020800020BF
:103980002080E620208000202080C5202880322052
:10399000208000202080442020800020208065207E
:1039A0002080002020807620208000202080882019
:1039B000208000202080C620288020202080002019
:1039C00020801720208000202080012020800020DF
:1039D0002080C72028800020208020802080208018
:1039E000C820288000202080208020802080C920BE
:1039F000288000202080208020802080208020803F
:103A000020802080208020802080208020802080B6
:103A100020802080E0202880162020800020208028
:103A20001C20208000202080212020800020208059
:103A3000362020800020208046202080002020800A
:103A400052202080002020806420208000202080C0
:103A50007A202080002020808B2020800020208061
:103A60009920208000202080A82020800020208015
:103A7000B920208000202080C420208000202080C9
:103A8000CA20208000202080D2202080002020809A
:103A9000D920208000202080E0202080002020806D
:103AA000F320208000202080E12028801620208024
:103AB000002020801C2020800020208022202080C8
:103AC000002020803620208000202080452020807B
:103AD0000020208052202080002020806420208030
:103AE000002020807A202080002020808B202080D1
:103AF000002020809920208000202080A820208085
:103B000000202080B920208000202080C420208038
:103B100000202080CA20208000202080D220208009
:103B200000202080D820208000202080E0202080DD
:103B300000202080F320208000202080E2202880A8
:103B400005202080002020800B2020800020208065
:103B50001B20208000202080342020800020208016
:103B600044202080002020804F20208000202080C2
:103B7000612020800020208079202080002020806B
:103B80008820208000202080972020800020208016
:103B9000A620208000202080B720208000202080C8
:103BA000C220208000202080C7202080002020808C
:103BB000D120208000202080D6202080002020805E
:103BC000DD20208000202080F32020800020208025
:103BD000E320288005202080002020800A202080EB
:103BE000002020801C202080002020803320208086
:103BF0000020208044202080002020805020208031
:103C000000202080622020800020208078202080DA
:103C10000020208088202080002020809720208085
:103C200000202080A620208000202080B720208037
:103C300000202080C220208000202080C7202080FB
:103C400000202080D120208000202080D5202080CE
:103C500000202080DD20208000202080F320208094
:103C600000202080E4202880012020800020208067
:103C70000120208000202080022020800020208041
:103C80002A202080002020803C20208000202080CE
:103C90004B202080002020805D202080002020807C
:103CA000742020800020208084202080002020801C
:103CB0009320208000202080A220208000202080CF
:103CC000B320208000202080BE2020800020208083
:103CD000C420208000202080CD2020800020208053
:103CE000D320208000202080DD2020800020208024
:103CF000F320208000202080E520288000202080E4
:103D00002080208020800220208000202080292008
:103D10002080002020803C202080002020804B201C
:103D20002080002020805D202080002020807420C2
:103D3000208000202080842020800020208093206C
:103D4000208000202080A220208000202080B3201E
:103D5000208000202080BE20208000202080C420E1
:103D6000208000202080CD20208000202080D320B3
:103D7000208000202080DC20208000202080F32074
:103D8000208000202080E620288011202080002034
:103D90002080342020800020208056202080002099
:103DA0002080762020800020208077202080002026
:103DB0002080662020800020208088202080002015
:103DC00020809920208000202080BB20208000209F
:103DD00020809920208000202080662020800020E4
:103DE0002080552020800020208055202080002029
:103DF000208045202080002020804320208000203B
:103E000020804420208000202080E720288032204D
:103E100020800020208055202080002020807620D7
:103E200020800020208066202080002020806720C5
:103E30002080002020806720208000202080872094
:103E400020800020208000E0BCE09920208000201D
:103E50002080BB202080002020809920208000200E
:103E60002080772020800020208044202080002097
:103E700020805620208000202080232020800020C9
:103E800020803320208000202080452020800020BA
:103E90002080E82028800020208020809920208019
:103EA0000020208087202080002020808820208003
:103EB0000020208077202080002020806620208025
:103EC000002020808820208000202080AA202080C0
:103ED00000202080BB20208000202080992020808E
:103EE0000020208066202080002020805520208017
:103EF0000020208055202080002020804420208029
:103F00000020208044202080002020805520208018
:103F100000202080E9202880AA2020800020208006
:103F2000208020802880AA202080CF202880002088
:103F30002080208020802080208020802080208081
:103F40002080208020802080208000E038E02080B9
:103F5000208020802080F020288000202080502099
:103F600020800020208020802080F32028800020D6
:103F70002080F92028800620208010202080292001
:103F80002080002020803A20288055202080112089
:103F900028806420FDF74CFF2920288035202880C8
:103FA0000020208051202880FF202080532028805E
:103FB0002C20208055202880822020802C20FDE38A
:103FC000B8427DD14FF470435521184601F0C4FA30
:103FD0004FF20104AA21204601F0BEFA5221601CD2
:103FE00001F0BAFA0821A01C01F0B6FA0121E01C88
:103FF00001F0B2FA0D214FF4304001F0ADFA0D217D
:104000004BF2010001F0A8FA0D214BF2020001F081
:10401000A3FA34214FF4364001F09EFA34214BF2DA
:10402000016001F099FA34214BF2026001F094FA38
:104030000D214FF4314001F08FFA0D214BF20110A8
:1040400001F08AFA0D214BF2021001F085FA3421B9
:104050004FF4374001F080FA34214BF2017001F047
:104060007BFA34214BF2027001F076FA00214FF412
:10407000324001F071FA00214BF2012001F06CFA9C
:1040800000214BF2022001F067FA24214FF438405E
:1040900001F062FA24214BF6010001F05DFA2421BF
:1040A0004BF6020001F058FA01214FF43F4001F0B5
:1040B00053FA0F214FF4334001F04EFA0F2100E084
:1040C000FEE34BF2013001F047FA0F214BF20230D0
:1040D00001F042FA34214FF4394001F03DFA342125
:1040E0004BF6011001F038FA34214BF6021001F0C2
:1040F00033FA08214FF4354001F02EFA08214BF233
:10410000015001F029FA08214BF2025001F024FA83
:1041100003214FF4424001F01FFA24214FF43A40AA
:1041200001F01AFA24214BF6012001F015FA24219E
:104130004BF6022001F010FA00214FF43C4001F050
:104140000BFA78214BF6014001F006FA00214BF6FC
:10415000024001F001FA00214FF43D4001F0FCF96A
:1041600078214BF6015001F0F7F900214BF602508F
:1041700001F0F2F900214FF43E4001F0EDF9642125
:104180004BF6016001F0E8F900214FF4514001F0D5
:10419000E3F933214DF2011001F0DEF900214DF277
:1041A000021001F0D9F934214DF2031001F0D4F9D5
:1041B00000214DF2041001F0CFF93A214DF2051023
:1041C00001F0CAF900214DF2061001F0C5F94A21AB
:1041D0004DF2071001F0C0F900214DF2081001F076
:1041E000BBF95C214DF2091001F0B6F900214DF246
:1041F0000A1001F0B1F981214DF20B1001F0ACF978
:1042000000214DF20C1001F0A7F9A6214DF20D107E
:1042100001F0A2F900214DF20E1001F09DF9E52107
:104220004DF20F1001F098F901214DF2101001F03C
:1042300093F913214DF2111001F08EF901214DF285
:10424000121001F089F954214DF2131001F084F994
:1042500001214DF2141001F07FF982214DF2151069
:1042600001F07AF901214DF2161001F075F9CA2119
:104270004DF2171001F070F902214DF2181001F003
:104280006BF900214DF2191001F066F902214DF28F
:104290001A1001F061F901214DF21B1001F05CF9D7
:1042A00002214DF21C1001F057F934214DF21D107E
:1042B00001F052F902214DF21E1001F04DF9672173
:1042C0004DF21F1001F048F902214DF2201001F0CB
:1042D00043F984214DF2211001F03EF902214DF203
:1042E000221001F039F9A4214DF2231001F034F924
:1042F00002214DF2241001F02FF9B7214DF22510C3
:1043000001F02AF902214DF2261001F025F9CF2102
:104310004DF2271001F020F902214DF2281001F092
:104320001BF9DE214DF2291001F016F902214DF2A0
:104330002A1001F011F9F2214DF22B1001F00CF9C5
:1043400002214DF22C1001F007F9FE214DF22D1043
:1043500001F002F903214DF22E1001F0FDF81021B9
:104360004DF22F1001F0F8F803214DF2301001F05A
:10437000F3F833214DF2311001F0EEF803214DF244
:10438000321001F0E9F86D214DF2331001F0E4F83C
:1043900000214FF4524001F0DFF833214DF20120AB
:1043A00001F0DAF800214DF2022001F0D5F83421B5
:1043B0004DF2032001F0D0F800214DF2042001F06D
:1043C000CBF83A214DF2052001F0C6F800214DF25C
:1043D000062001F0C1F84A214DF2072001F0BCF897
:1043E00000214DF2082001F0B7F85C214DF20920C0
:1043F00001F0B2F800214DF20A2001F0ADF8812160
:104400004DF20B2001F0A8F800214DF20C2001F034
:10441000A3F8A6214DF20D2001F09EF800214DF2E7
:104420000E2001F099F8E5214DF20F2001F094F8EB
:1044300001214DF2102001F08FF813214DF21120CF
:1044400001F08AF801214DF2122001F085F8542183
:104450004DF2132001F080F801214DF2142001F0FB
:104460007BF882214DF2152001F076F801214DF202
:10447000162001F071F8CA214DF2172001F06CF8F6
:1044800002214DF2182001F067F800214DF21920A9
:1044900001F062F802214DF21A2001F05DF80121CD
:1044A0004DF21B2001F058F802214DF21C2001F0C2
:1044B00053F834214DF21D2001F04EF802214DF247
:1044C0001E2001F049F867214DF21F2001F044F849
:1044D00002214DF2202001F03FF884214DF22120ED
:1044E00001F03AF802214DF2222001F035F8A42122
:1044F0004DF2232001F030F802214DF2242001F08A
:104500002BF8B7214DF2252001F026F802214DF2BB
:10451000262001F021F8CF214DF2272001F01CF8D0
:1045200002214DF2282001F017F8DE214DF229205A
:1045300001F012F802214DF22A2001F00DF8F221CB
:104540004DF22B2001F008F802214DF22C2001F051
:1045500003F8FE214DF22D2000F0FEFF03214DF265
:104560002E2000F0F9FF10214DF22F2000F0F4FF73
:1045700003214DF2302000F0EFFF33214DF23120C6
:1045800000F0EAFF03214DF2322000F0E5FF6D213B
:104590004DF2332000F0E0FF00214FF4534000F0D3
:1045A000DBFF33214DF2013000F0D6FF00214DF248
:1045B000023000F0D1FF34214DF2033000F0CCFF87
:1045C00000214DF2043000F0C7FF3A214DF20530D2
:1045D00000F0C2FF00214DF2063000F0BDFF4A217D
:1045E0004DF2073000F0B8FF00214DF2083000F026
:1045F000B3FF5C214DF2093000F0AEFF00214DF217
:104600000A3000F0A9FF81214DF20B3000F0A4FF29
:1046100000214DF20C3000F09FFFA6214DF20D302D
:1046200000F09AFF00214DF20E3000F095FFE521D9
:104630004DF20F3000F090FF01214DF2103000F0EC
:104640008BFF13214DF2113000F086FF01214DF256
:10465000123000F081FF54214DF2133000F07CFF46
:1046600001214DF2143000F077FF82214DF2153018
:1046700000F072FF01214DF2163000F06DFFCA21EB
:104680004DF2173000F068FF02214DF2183000F0B3
:1046900063FF00214DF2193000F05EFF02214DF260
:1046A0001A3000F059FF01214DF21B3000F054FF89
:1046B00002214DF21C3000F04FFF34214DF21D302D
:1046C00000F04AFF02214DF21E3000F045FF672145
:1046D0004DF21F3000F040FF02214DF2203000F07B
:1046E0003BFF84214DF2213000F036FF02214DF2D4
:1046F000223000F031FFA4214DF2233000F02CFFD6
:1047000002214DF2243000F027FFB7214DF2253071
:1047100000F022FF02214DF2263000F01DFFCF21D4
:104720004DF2273000F018FF02214DF2283000F042
:1047300013FFDE214DF2293000F00EFF02214DF271
:104740002A3000F009FFF2214DF22B3000F004FF77
:1047500002214DF22C3000F0FFFEFE214DF22D30F3
:1047600000F0FAFE03214DF22E3000F0F5FE10218C
:104770004DF22F3000F0F0FE03214DF2303000F00A
:10478000EBFE33214DF2313000F0E6FE03214DF215
:10479000323000F0E1FE6D214DF2333000F0DCFEEE
:1047A00000214FF4544000F0D7FE33214DF2014078
:1047B00000F0D2FE00214DF2024000E07BE300F069
:1047C000CBFE34214DF2034000F0C6FE00214DF235
:1047D000044000F0C1FE3A214DF2054000F0BCFE5D
:1047E00000214DF2064000F0B7FE4A214DF207408D
:1047F00000F0B2FE00214DF2084000F0ADFE5C2159
:104800004DF2094000F0A8FE00214DF20A4000F0F0
:10481000A3FE81214DF20B4000F09EFE00214DF2DF
:104820000C4000F099FEA6214DF20D4000F094FEE0
:1048300000214DF20E4000F08FFEE5214DF20F40B9
:1048400000F08AFE01214DF2104000F085FE132198
:104850004DF2114000F080FE01214DF2124000F0B7
:104860007BFE54214DF2134000F076FE01214DF203
:10487000144000F071FE82214DF2154000F06CFEF4
:1048800001214DF2164000F067FECA214DF217409B
:1048900000F062FE02214DF2184000F05DFE0021A2
:1048A0004DF2194000F058FE02214DF21A4000F07E
:1048B00053FE01214DF21B4000F04EFE022100E0AC
:1048C000FBE24DF21C4000F047FE34214DF21D404A
:1048D00000F042FE02214DF21E4000F03DFE672135
:1048E0004DF21F4000F038FE02214DF2204000F052
:1048F00033FE84214DF2214000F02EFE02214DF2C4
:10490000224000F029FEA4214DF2234000F024FEB5
:1049100002214DF2244000F01FFEB7214DF2254048
:1049200000F01AFE02214DF2264000F015FECF21C4
:104930004DF2274000F010FE02214DF2284000F019
:104940000BFEDE214DF2294000F006FE02214DF261
:104950002A4000F001FEF2214DF22B4000F0FCFD58
:1049600002214DF22C4000F0F7FDFE214DF22D40CA
:1049700000F0F2FD03214DF22E4000F0EDFD10217C
:104980004DF22F4000F0E8FD03214DF2304000F0E1
:10499000E3FD33214DF2314000F0DEFD03214DF205
:1049A000324000F0D9FD6D214DF2334000F0D4FDCE
:1049B00000214FF4554000F0CFFD33214DF201505E
:1049C00000F0CAFD00214DF2025000F0C5FD342177
:1049D0004DF2035000F0C0FD00214DF2045000F0F4
:1049E000BBFD3A214DF2055000F0B6FD00214DF21D
:1049F000065000F0B1FD4A214DF2075000F0ACFD29
:104A000000214DF2085000F0A7FD5C214DF2095045
:104A100000F0A2FD00214DF20A5000F09DFD812121
:104A20004DF20B5000F098FD00214DF20C5000F0BB
:104A300093FDA6214DF20D5000F08EFD00214DF2A8
:104A40000E5000F089FDE5214DF20F5000F084FD7D
:104A500001214DF2105000F07FFD13214DF2115055
:104A600000F07AFD01214DF2125000F075FD542145
:104A70004DF2135000F070FD01214DF2145000F082
:104A80006BFD82214DF2155000F066FD01214DF2C3
:104A9000165000F061FDCA214DF2175000F05CFD88
:104AA00002214DF2185000F057FD00214DF219502F
:104AB00000F052FD02214DF21A5000F04DFD01218F
:104AC0004DF21B5000F048FD02214DF21C5000F049
:104AD00043FD34214DF21D5000F03EFD02214DF208
:104AE0001E5000F039FD67214DF21F5000F034FDDB
:104AF00002214DF2205000F02FFD84214DF2215073
:104B000000F02AFD02214DF2225000F025FDA421E3
:104B10004DF2235000F020FD02214DF2245000F010
:104B20001BFDB7214DF2255000F016FD02214DF27C
:104B3000265000F011FDCF214DF2275000F00CFD62
:104B400002214DF2285000F007FDDE214DF22950E0
:104B500000F002FD02214DF22A5000F0FDFCF2218E
:104B60004DF22B5000F0F8FC02214DF22C5000F0D9
:104B7000F3FCFE214DF22D5000F0EEFC03214DF22E
:104B80002E5000F0E9FC10214DF22F5000F0E4FC13
:104B900003214DF2305000F0DFFC33214DF2315053
:104BA00000F0DAFC03214DF2325000F0D5FC6D210B
:104BB0004DF2335000F0D0FC00214FF4564000F08D
:104BC000CBFC33214DF2016000F0C6FC00214DF218
:104BD000026000F0C1FC34214DF2036000F0BCFC27
:104BE00000214DF2046000F0B7FC3A214DF205605F
:104BF00000F0B2FC00214DF2066000F0ADFC4A214D
:104C00004DF2076000F0A8FC00214DF2086000F0B2
:104C1000A3FC5C214DF2096000F09EFC00214DF2E6
:104C20000A6000F099FC81214DF20B6000F094FCC9
:104C300000214DF20C6000F08FFCA6214DF20D60BA
:104C400000F08AFC00214DF20E6000F085FCE521A9
:104C50004DF20F6000F080FC01214DF2106000F079
:104C60007BFC13214DF2116000F076FC01214DF226
:104C7000126000F071FC54214DF2136000F06CFCE6
:104C800001214DF2146000F067FC82214DF21560A5
:104C900000F062FC01214DF2166000F05DFCCA21BB
:104CA0004DF2176000F058FC02214DF2186000F040
:104CB00053FC00214DF2196000F04EFC02214DF230
:104CC0001A6000F049FC01214DF21B6000F044FC29
:104CD00002214DF21C6000F03FFC34214DF21D60BA
:104CE00000F03AFC02214DF21E6000F035FC672115
:104CF0004DF21F6000F030FC02214DF2206000F008
:104D00002BFC84214DF2216000F026FC02214DF2A3
:104D1000226000F021FCA4214DF2236000F01CFC75
:104D200002214DF2246000F017FCB7214DF22560FE
:104D300000F012FC02214DF2266000F00DFCCF21A4
:104D40004DF2276000F008FC02214DF2286000F0CF
:104D500003FCDE214DF2296000F0FEFB02214DF242
:104D60002A6000F0F9FBF2214DF22B6000F0F4FB19
:104D700002214DF22C6000F0EFFBFE214DF22D6080
:104D800000F0EAFB03214DF22E6000F0E5FB10215C
:104D90004DF22F6000F0E0FB03214DF2306000F097
:104DA000DBFB33214DF2316000F0D6FB03214DF2E5
:104DB000326000F0D1FB6D214DF2336000F0CCFB8E
:104DC0005521184600F0C8FBAA21204600F0C4FB7C
:104DD0005221601C00F0C0FB0821A01C00F0BCFBAD
:104DE0000021E01C00F0B8FBCC214FF4314000F072
:104DF000B3FB00214BF2011000F0AEFB05214FF494
:104E0000364000F0A9FB70214FF4374000F0A4FBBE
:104E100070214BF2017000F09FFB01214FF43840EC
:104E200000F09AFB03214BF6010000F095FB0321F3
:104E30004BF6020000F090FB03214BF6030000F05C
:104E40008BFB02214FF43C4000F086FB00214BF627
:104E5000014000F081FB00214BF6024000F07CFB9A
:104E6000D0214FF4494000F077FB02214CF60110AD
:104E700000F072FB50214CF6021000F06DFB502147
:104E80004CF6031000F068FB50214CF6041000F0C3
:104E900063FB00214FF4545000F05EFB55214FF4AA
:104EA000685000F059FB4FF488502880782004F0B7
:104EB0009FF94FF4245028807BE0504579D1E220BF
:104EC00028801D2020800220208004202080642053
:104ED00004F08EF9E0202880012020800A20FCF7D1
:104EE000A7FFE0202880032020800C20FCF7A0FFF3
:104EF000012028800A20FCF79BFFE62028802F2035
:104F00002080FF2020802080B0202880202020804A
:104F1000002020800320208040F21F3020800120CC
:104F2000208040F2DF10208000202080B4202880E4
:104F30000420208040F21F402080002020802E206E
:104F4000208000202080208020802080B6202880A3
:104F5000022020804FF40370208000202080172042
:104F6000208015202080002020802080F0202880B4
:104F70000320208029202880D02028800020208025
:104F8000BE20288005202080FE2020800120208057
:104F90000020208020802080B820288003202080CE
:104FA00001202080BA20288001202080642000F089
:104FB000C7F8B088404505D0484503D0B84201D075
:104FC000504517D1DBF81C1121F00F01CBF81C1153
:104FD000DBF81C1121F47061CBF81C11DBF81C11FB
:104FE00041F00101CBF81C11DBF81C1141F4807178
:104FF000CBF81C110020FDF7A5FE05490120C1F8E2
:1050000080014FF6FF70FDF775FE15B0BDE8F08F1B
:105010000080214210B50A4C606860B920688000A9
:10502000FBF7C8FF606040B104F108010548086063
:105030000846FCF75BFE002010BD012010BD0000FB
:1050400044010020FD7E00082DE9F041FEF743F900
:105050000746002528E02846FCF724F918B328461F
:10506000FCF728FB80462846FEF716F9082817DCCF
:105070000F48104950F825000069884210D0284692
:10508000FEF726F90646002408E0E0B2FEF770F9C4
:105090000246E1B2284600F001FA641CB442F4DB97
:1050A0004046FCF707FB6D1CBD42D4DBBDE8F08138
:1050B000E800002084D8000810B51F4C22888242E6
:1050C00002D962888A4201D8002010BD00F06CF934
:1050D000A1881A4AA1F5134041F66313413805D05F
:1050E000A1F5A640103801D0994201D12E2005E04B
:1050F000A1F5AA40103802D14FF4385010800F4A61
:10510000921C10889942E0D00120401EC0B2FCD20F
:1051100010880121491EC9B2FCD21188C2B24FF6D3
:10512000FF7303EA02226FF30A00920A40EA421078
:1051300040EAD12010BD00002C020020FE07006CC8
:105140000C4A10B5BE211180941C05212180FBF76B
:1051500039F94FF06632084BFBF7C2F8FBF73FF91D
:10516000208001202080FF202080002020802080BF
:1051700010BD0000FE07006C66660440F0B5534B9E
:10518000002419469A79898841F66316012A01D0CC
:105190001AB11BE0B14202D118E0B14216D1082881
:1051A00014D2DFE800F00406080A0C0E10120620E4
:1051B0000CE007200AE0042008E0052006E00120BA
:1051C00004E0002002E0032000E00220A1F51347E4
:1051D00045F2103245F21055413F05D0914203D0BF
:1051E000A94201D0B1426FD1082812D2DFE800F005
:1051F000110406080A0C0E1080240AE0402408E07E
:10520000C02406E0202404E0602402E0A02400E0A2
:10521000E024A94202D14FF4585000E036209142D8
:1052200005D0A94203D0B14201D044F00804214680
:1052300000F092F99988B1420AD0A00618885A88DD
:1052400002D5904202D303E0904201D91A805880DF
:105250001F4A901CA9425989118021D10024048041
:105260004C1C1480002404808C1C14801C88641E38
:10527000250A0580C91C1180E1B20180998911803D
:10528000002404804C1C1480002404808C1C148096
:105290005B885B1E1C0A0480C91C1180D9B212E015
:1052A0000021018001801988491E0C0A0480C9B2BE
:1052B0000180998911800021018001805988491E4F
:1052C0000A0A0280C9B20180F0BD00002C02002051
:1052D000FE07006C10B50D4C0D492068407C51F85C
:1052E000200040B1C1680968042901D00068F8E7CE
:1052F00008B1FBF7D5FF20680021016600F1080125
:105300004161BDE8104000F02FB80000D00000203F
:10531000E800002001490968496808474001002069
:10532000044909680A7C520701D5C96B00E0896B02
:1053300008607047D00000207CB5094C0546206805
:10534000417C084850F82100C1680A6B69469047C3
:1053500020686A4629460830FCF733FC7CBD000013
:10536000D0000020E80000200448016804484A7C7E
:10537000083150F82200C268126B1047D00000209C
:10538000E800002001490968096808474001002039
:10539000044909680A7C520701D5896B00E0C96B92
:1053A00008607047D00000202DE9F043DFF8D89066
:1053B000364A4B46B9F804709C890E0A050A5B8987
:1053C000A7F5134C02F10208BCF1410C1DD0A7F562
:1053D000A04CBCF5447C18D0A7F5C85CBCF1630CAC
:1053E0001DD0A7F5A04CBCF5A26C3CD11380A8F849
:1053F00000505B1C1380C0B2A8F800001480A8F80D
:105400000060641C1480C8B22BE01380A8F8005020
:10541000C0B2A8F800001480A8F80060F3E71A4FA3
:1054200099F806C03F88BCF1000F1ED01380A8F881
:105430000050C0B2A8F800007F1E380AA8F800008B
:105440005FFA87F0A8F800001480A8F80060C9B2DD
:10545000A8F80010B9F80200401E010AA8F80010D0
:10546000C0B2A8F80000BDE8F083381A401E80B230
:1054700013800023A8F80030A8F80030030AA8F829
:105480000030C0B2DEE700002C020020FE07006CF6
:10549000014909688968084740010020F8B51546A8
:1054A0000E460124FBF7FEFE009058B1C0681021A3
:1054B000426A68469047030004D02A463146009865
:1054C000984700242046F8BDF8B515460E4601243D
:1054D000FBF7E8FE009058B1C0680B21426A6846AD
:1054E0009047030004D02A4631460098984700248C
:1054F0002046F8BDF8B515460E460124FBF7D2FE4E
:10550000009058B1C0680A21426A6846904703007B
:1055100004D02A4631460098984700242046F8BD1A
:1055200010B5074C2068006BFDF7FEFBFFF730FF5E
:105530002068406BFDF7F8FBBDE81040FFF7F0BEB8
:10554000D00000200248034900890880704700000D
:105550002C020020FE07006C024A1080901C018083
:1055600070470000FE07006C2DE9F84300231A463F
:105570003C493D48FBF73AFE3C4C002062882188BC
:10558000FFF7A2FF628821880020FFF7B3FFA08801
:1055900040F2DF156F1CA0F5AA4140F21F364FF410
:1055A0004878103921D0A0F5C851633928D0A0F52A
:1055B000A6414FF4A075103932D0A0F5D04104397E
:1055C0002ED0A07940F63F7740F65F76F0B3062004
:1055D000FCF718F900219B23F02208460097FCF7FE
:1055E000BBF8BC232A46009614E000233A4619462D
:1055F00018460095FCF7B0F800234246009609E0F3
:1056000000234246194618460096FCF7A5F80023E9
:10561000009519E000210120FCF79EF8BDE8F88311
:10562000A079E22440F65B78C42640F6E46910B124
:105630000620FCF7E7F8002143462A460846009476
:10564000FCF78AF84B4600963A46E3E7FFE70097F7
:10565000002122889B230846FCF77EF8009662888A
:10566000BC23D7E730A700088CA500082C02002037
:10567000012902D04FF0FF30704700207047000032
:105680002DE9FF4F8DB01746674ADDF870901E9EDA
:10569000209812681D4600248AB11D9B1F98CDE9F1
:1056A0000293CDE90460DDE91A03CDE90003146833
:1056B0002B463A460D98A04711B0BDE8F08F0D9AE1
:1056C00001EB050802EB070CDDE91A231A43A8F1E8
:1056D0000108ACF1010C012A06D0C9F108004FF015
:1056E000000B029105909CE0504A1268B2F90A4002
:1056F000631A002B06DDED1A002DDDDD21461D9C11
:1057000003FB0466B2F90E30A8EB0303002B02DDA5
:10571000ED1A002DD0DDB2F90C30ACEB0303002BF9
:1057200000DDFF1A0D9B1C1AB2F90830A3420DDDF3
:10573000A3EB040C0CEB0003181A20F00700044440
:10574000A7EB0C0706EBE30603F00700002FB3DD21
:10575000DDF874C01F9BCDE902C6CDE90403CDE995
:105760000059527C32483B4650F82200C2685568C6
:105770000A462146A8479FE71B99029808440C90C7
:105780002A49401E00900A68B2F90A30834242DC7E
:10579000B2F90E10029881423DDB4FF0000A0D98DD
:1057A0000A96D046039034E0BAF1000F05D10A986A
:1057B0004FF0080A10F8014B0A900599AAEB090A64
:1057C00034FA01F004FA09F4E4B204D11749096883
:1057D000097C890717D415490968C96B0A680B92B7
:1057E0001F9A0AB152F82000086003991A98009B8A
:1057F0000A18DDE90210521EFDF722FD0B490B9835
:105800000968C96B086003991A9808F101080844EF
:105810000390B845C8DB0C9802901D980BF1010B62
:105820000644AB45A8DB47E7F4000020D000002089
:10583000E8000020002818D0410817D0810817D0B0
:10584000C10817D0010917D0410917D0010A17D094
:10585000410A17D0010B15D0C10B13D0010C11D088
:10586000810C11D0000E11D020207047012070470C
:1058700002207047032070470420704705207047BE
:10588000082070471020704712207047182070477A
:1058900000B50022FFF7CEFF012804D0811E0629A3
:1058A00003D808220BE0012209E0A0F10901072931
:1058B00001D8102203E011380F2800D8202210460A
:1058C00000BD0000074910B5054808600846FCF710
:1058D00089FA002803D0BDE81040FAF77EBE10BD5B
:1058E000003002401C00002000B587B01C21684633
:1058F000FAF7EBFC17484FF02041102201601649DF
:105900004160062181600021C160C0E9041281610B
:10591000C16113020162C0E90913C16201634163FD
:1059200081630F20FF230090CDE90103CDE903023D
:105930001120CDE90501002269460648FCF770FFF9
:1059400008B1FAF74AFE0548C16941F48061C161B6
:1059500007B000BD40AC0020040100A000000140E1
:105960002DE9F04385B000242C4800940194029462
:105970000394816941F040018161816901F0400136
:105980000491816941F010018161816901F0100188
:105990000491816941F480718161816901F48071B0
:1059A0000491816941F020018161816901F0200148
:1059B0000491816941F004018161816901F0040170
:1059C0000491816941F0080181618069DFF85080AC
:1059D00000F008000490002220214046FCF70EFC55
:1059E000DFF84090002220214846FCF707FC2025E4
:1059F0000227012603970095CDE9016469464046D8
:105A0000FCF7F8FA03970095CDE90164694648462A
:105A1000FCF7F0FA05B0BDE8F0830000001002408A
:105A200000180140000C014010B586B00024174852
:105A30000094019402940394049413490594016022
:105A40004721C0E901140121C0E9031444618461C4
:105A5000FCF76CFF08B1FAF7C0FD4FF480500090DE
:105A600069460A48FCF7E9FF08B1FAF7B6FD049465
:105A700004A906480594FCF71BFF002801D0FAF79B
:105A8000ACFD06B010BD00000034014088AC002021
:105A90000C4810B50A4901604FF4E1314160002122
:105AA00081600C22C160C0E904128161C161FDF70F
:105AB00048F8002803D0BDE81040FAF78EBD10BDAD
:105AC00000380140D0AC0020FEE77047704710B5A9
:105AD000FCF7A0FB03F08EFF04F0E8FABDE81040ED
